{
  "_format": "hh-sol-artifact-1",
  "contractName": "Vesting",
  "sourceName": "contracts/vest.sol",
  "abi": [
    {
      "anonymous": false,
      "inputs": [
        {
          "indexed": false,
          "internalType": "uint256",
          "name": "startTime",
          "type": "uint256"
        },
        {
          "indexed": false,
          "internalType": "uint256",
          "name": "vestingPeriod",
          "type": "uint256"
        }
      ],
      "name": "NewStakeholder",
      "type": "event"
    },
    {
      "anonymous": false,
      "inputs": [
        {
          "indexed": false,
          "internalType": "uint256",
          "name": "time",
          "type": "uint256"
        },
        {
          "indexed": false,
          "internalType": "address",
          "name": "stakeholder",
          "type": "address"
        }
      ],
      "name": "Whitelisted",
      "type": "event"
    },
    {
      "inputs": [
        {
          "internalType": "address",
          "name": "",
          "type": "address"
        }
      ],
      "name": "balances",
      "outputs": [
        {
          "internalType": "uint256",
          "name": "",
          "type": "uint256"
        }
      ],
      "stateMutability": "view",
      "type": "function"
    },
    {
      "inputs": [],
      "name": "claimToken",
      "outputs": [],
      "stateMutability": "nonpayable",
      "type": "function"
    },
    {
      "inputs": [
        {
          "internalType": "string",
          "name": "_name",
          "type": "string"
        },
        {
          "internalType": "address",
          "name": "_organizationAddress",
          "type": "address"
        },
        {
          "internalType": "uint256",
          "name": "_token",
          "type": "uint256"
        }
      ],
      "name": "createOrganization",
      "outputs": [],
      "stateMutability": "nonpayable",
      "type": "function"
    },
    {
      "inputs": [],
      "name": "getClaimedToken",
      "outputs": [
        {
          "internalType": "uint256",
          "name": "",
          "type": "uint256"
        }
      ],
      "stateMutability": "view",
      "type": "function"
    },
    {
      "inputs": [
        {
          "internalType": "address",
          "name": "_address",
          "type": "address"
        }
      ],
      "name": "getStakeholderPosition",
      "outputs": [
        {
          "components": [
            {
              "internalType": "address",
              "name": "stakeholderAddress",
              "type": "address"
            },
            {
              "internalType": "string",
              "name": "stakeholderPosition",
              "type": "string"
            },
            {
              "internalType": "uint256",
              "name": "vestingPeriod",
              "type": "uint256"
            },
            {
              "internalType": "uint256",
              "name": "startTime",
              "type": "uint256"
            },
            {
              "internalType": "uint256",
              "name": "tokenAmount",
              "type": "uint256"
            },
            {
              "internalType": "uint256",
              "name": "claimedToken",
              "type": "uint256"
            }
          ],
          "internalType": "struct Vesting.Stakeholder",
          "name": "",
          "type": "tuple"
        }
      ],
      "stateMutability": "view",
      "type": "function"
    },
    {
      "inputs": [
        {
          "internalType": "address",
          "name": "_stakeholderAddress",
          "type": "address"
        },
        {
          "internalType": "string",
          "name": "_position",
          "type": "string"
        },
        {
          "internalType": "uint256",
          "name": "_vestingPeriod",
          "type": "uint256"
        },
        {
          "internalType": "uint256",
          "name": "_token",
          "type": "uint256"
        }
      ],
      "name": "newStakeholder",
      "outputs": [],
      "stateMutability": "nonpayable",
      "type": "function"
    },
    {
      "inputs": [
        {
          "internalType": "address",
          "name": "",
          "type": "address"
        }
      ],
      "name": "organizations",
      "outputs": [
        {
          "internalType": "address",
          "name": "organizationAddress",
          "type": "address"
        },
        {
          "internalType": "string",
          "name": "name",
          "type": "string"
        },
        {
          "internalType": "uint256",
          "name": "tokenAmount",
          "type": "uint256"
        }
      ],
      "stateMutability": "view",
      "type": "function"
    },
    {
      "inputs": [
        {
          "internalType": "address",
          "name": "",
          "type": "address"
        }
      ],
      "name": "stakeholders",
      "outputs": [
        {
          "internalType": "address",
          "name": "stakeholderAddress",
          "type": "address"
        },
        {
          "internalType": "string",
          "name": "stakeholderPosition",
          "type": "string"
        },
        {
          "internalType": "uint256",
          "name": "vestingPeriod",
          "type": "uint256"
        },
        {
          "internalType": "uint256",
          "name": "startTime",
          "type": "uint256"
        },
        {
          "internalType": "uint256",
          "name": "tokenAmount",
          "type": "uint256"
        },
        {
          "internalType": "uint256",
          "name": "claimedToken",
          "type": "uint256"
        }
      ],
      "stateMutability": "view",
      "type": "function"
    },
    {
      "inputs": [],
      "name": "totalSupply",
      "outputs": [
        {
          "internalType": "uint256",
          "name": "",
          "type": "uint256"
        }
      ],
      "stateMutability": "view",
      "type": "function"
    },
    {
      "inputs": [
        {
          "internalType": "address",
          "name": "_stakeholder",
          "type": "address"
        }
      ],
      "name": "whitelistAddress",
      "outputs": [],
      "stateMutability": "nonpayable",
      "type": "function"
    },
    {
      "inputs": [
        {
          "internalType": "address",
          "name": "",
          "type": "address"
        }
      ],
      "name": "whitelistedAddresses",
      "outputs": [
        {
          "internalType": "bool",
          "name": "",
          "type": "bool"
        }
      ],
      "stateMutability": "view",
      "type": "function"
    }
  ],
  "bytecode": "0x608060405234801561001057600080fd5b50611b25806100206000396000f3fe608060405234801561001057600080fd5b50600436106100a95760003560e01c80634156658511610071578063415665851461017a5780634451d89f146101965780634c0be449146101a05780635a1f7406146101bc578063c07cfca9146101ee578063c0a8ea8114610223576100a9565b80630436c8f9146100ae57806306c933d8146100cc57806315c77811146100fc57806318160ddd1461012c57806327e235e31461014a575b600080fd5b6100b661023f565b6040516100c39190610e73565b60405180910390f35b6100e660048036038101906100e19190610f00565b610286565b6040516100f39190610f48565b60405180910390f35b61011660048036038101906101119190610f00565b6102a6565b604051610123919061109a565b60405180910390f35b61013461040f565b6040516101419190610e73565b60405180910390f35b610164600480360381019061015f9190610f00565b610415565b6040516101719190610e73565b60405180910390f35b610194600480360381019061018f9190610f00565b61042d565b005b61019e610591565b005b6101ba60048036038101906101b5919061121d565b6108c2565b005b6101d660048036038101906101d19190610f00565b610b61565b6040516101e5939291906112f9565b60405180910390f35b61020860048036038101906102039190610f00565b610c33565b60405161021a96959493929190611337565b60405180910390f35b61023d6004803603810190610238919061139f565b610d17565b005b6000600460003373ffffffffffffffffffffffffffffffffffffffff1673ffffffffffffffffffffffffffffffffffffffff16815260200190815260200160002054905090565b60026020528060005260406000206000915054906101000a900460ff1681565b6102ae610e0e565b600160008373ffffffffffffffffffffffffffffffffffffffff1673ffffffffffffffffffffffffffffffffffffffff1681526020019081526020016000206040518060c00160405290816000820160009054906101000a900473ffffffffffffffffffffffffffffffffffffffff1673ffffffffffffffffffffffffffffffffffffffff1673ffffffffffffffffffffffffffffffffffffffff16815260200160018201805461035e9061143d565b80601f016020809104026020016040519081016040528092919081815260200182805461038a9061143d565b80156103d75780601f106103ac576101008083540402835291602001916103d7565b820191906000526020600020905b8154815290600101906020018083116103ba57829003601f168201915b505050505081526020016002820154815260200160038201548152602001600482015481526020016005820154815250509050919050565b60005481565b60046020528060005260406000206000915090505481565b3373ffffffffffffffffffffffffffffffffffffffff16600360003373ffffffffffffffffffffffffffffffffffffffff1673ffffffffffffffffffffffffffffffffffffffff16815260200190815260200160002060000160009054906101000a900473ffffffffffffffffffffffffffffffffffffffff1673ffffffffffffffffffffffffffffffffffffffff16146104fd576040517f08c379a00000000000000000000000000000000000000000000000000000000081526004016104f4906114e0565b60405180910390fd5b6001600260008373ffffffffffffffffffffffffffffffffffffffff1673ffffffffffffffffffffffffffffffffffffffff16815260200190815260200160002060006101000a81548160ff0219169083151502179055507f2279719af4080e08a5a2b25c8234a83b76079141524127d1096409ac07fa5d0f4282604051610586929190611500565b60405180910390a150565b600260003373ffffffffffffffffffffffffffffffffffffffff1673ffffffffffffffffffffffffffffffffffffffff16815260200190815260200160002060009054906101000a900460ff1661061d576040517f08c379a000000000000000000000000000000000000000000000000000000000815260040161061490611575565b60405180910390fd5b6000600160003373ffffffffffffffffffffffffffffffffffffffff1673ffffffffffffffffffffffffffffffffffffffff16815260200190815260200160002090503373ffffffffffffffffffffffffffffffffffffffff16600360003373ffffffffffffffffffffffffffffffffffffffff1673ffffffffffffffffffffffffffffffffffffffff16815260200190815260200160002060000160009054906101000a900473ffffffffffffffffffffffffffffffffffffffff1673ffffffffffffffffffffffffffffffffffffffff16148061074b57503373ffffffffffffffffffffffffffffffffffffffff168160000160009054906101000a900473ffffffffffffffffffffffffffffffffffffffff1673ffffffffffffffffffffffffffffffffffffffff16145b61078a576040517f08c379a0000000000000000000000000000000000000000000000000000000008152600401610781906115e1565b60405180910390fd5b8060020154816003015461079e9190611630565b4210156107e0576040517f08c379a00000000000000000000000000000000000000000000000000000000081526004016107d7906116b0565b60405180910390fd5b6000816005015482600401546107f691906116d0565b90506000811161083b576040517f08c379a000000000000000000000000000000000000000000000000000000000815260040161083290611750565b60405180910390fd5b8082600501600082825461084f9190611630565b9250508190555080600460008460000160009054906101000a900473ffffffffffffffffffffffffffffffffffffffff1673ffffffffffffffffffffffffffffffffffffffff1673ffffffffffffffffffffffffffffffffffffffff168152602001908152602001600020819055505050565b3373ffffffffffffffffffffffffffffffffffffffff16600360003373ffffffffffffffffffffffffffffffffffffffff1673ffffffffffffffffffffffffffffffffffffffff16815260200190815260200160002060000160009054906101000a900473ffffffffffffffffffffffffffffffffffffffff1673ffffffffffffffffffffffffffffffffffffffff1614610992576040517f08c379a0000000000000000000000000000000000000000000000000000000008152600401610989906117bc565b60405180910390fd5b80600360003373ffffffffffffffffffffffffffffffffffffffff1673ffffffffffffffffffffffffffffffffffffffff168152602001908152602001600020600201541015610a17576040517f08c379a0000000000000000000000000000000000000000000000000000000008152600401610a0e90611828565b60405180910390fd5b6040518060c001604052808573ffffffffffffffffffffffffffffffffffffffff1681526020018481526020018381526020014281526020018281526020016000815250600160008673ffffffffffffffffffffffffffffffffffffffff1673ffffffffffffffffffffffffffffffffffffffff16815260200190815260200160002060008201518160000160006101000a81548173ffffffffffffffffffffffffffffffffffffffff021916908373ffffffffffffffffffffffffffffffffffffffff1602179055506020820151816001019081610af691906119f4565b5060408201518160020155606082015181600301556080820151816004015560a082015181600501559050507f6b14c643c7a21d055dece27d5b28b6c529fdf91f89c8a4d6feabd94cc99267684283604051610b53929190611ac6565b60405180910390a150505050565b60036020528060005260406000206000915090508060000160009054906101000a900473ffffffffffffffffffffffffffffffffffffffff1690806001018054610baa9061143d565b80601f0160208091040260200160405190810160405280929190818152602001828054610bd69061143d565b8015610c235780601f10610bf857610100808354040283529160200191610c23565b820191906000526020600020905b815481529060010190602001808311610c0657829003601f168201915b5050505050908060020154905083565b60016020528060005260406000206000915090508060000160009054906101000a900473ffffffffffffffffffffffffffffffffffffffff1690806001018054610c7c9061143d565b80601f0160208091040260200160405190810160405280929190818152602001828054610ca89061143d565b8015610cf55780601f10610cca57610100808354040283529160200191610cf5565b820191906000526020600020905b815481529060010190602001808311610cd857829003601f168201915b5050505050908060020154908060030154908060040154908060050154905086565b60405180606001604052808373ffffffffffffffffffffffffffffffffffffffff16815260200184815260200182815250600360008473ffffffffffffffffffffffffffffffffffffffff1673ffffffffffffffffffffffffffffffffffffffff16815260200190815260200160002060008201518160000160006101000a81548173ffffffffffffffffffffffffffffffffffffffff021916908373ffffffffffffffffffffffffffffffffffffffff1602179055506020820151816001019081610de391906119f4565b506040820151816002015590505080600080828254610e029190611630565b92505081905550505050565b6040518060c00160405280600073ffffffffffffffffffffffffffffffffffffffff16815260200160608152602001600081526020016000815260200160008152602001600081525090565b6000819050919050565b610e6d81610e5a565b82525050565b6000602082019050610e886000830184610e64565b92915050565b6000604051905090565b600080fd5b600080fd5b600073ffffffffffffffffffffffffffffffffffffffff82169050919050565b6000610ecd82610ea2565b9050919050565b610edd81610ec2565b8114610ee857600080fd5b50565b600081359050610efa81610ed4565b92915050565b600060208284031215610f1657610f15610e98565b5b6000610f2484828501610eeb565b91505092915050565b60008115159050919050565b610f4281610f2d565b82525050565b6000602082019050610f5d6000830184610f39565b92915050565b610f6c81610ec2565b82525050565b600081519050919050565b600082825260208201905092915050565b60005b83811015610fac578082015181840152602081019050610f91565b60008484015250505050565b6000601f19601f8301169050919050565b6000610fd482610f72565b610fde8185610f7d565b9350610fee818560208601610f8e565b610ff781610fb8565b840191505092915050565b61100b81610e5a565b82525050565b600060c0830160008301516110296000860182610f63565b50602083015184820360208601526110418282610fc9565b91505060408301516110566040860182611002565b5060608301516110696060860182611002565b50608083015161107c6080860182611002565b5060a083015161108f60a0860182611002565b508091505092915050565b600060208201905081810360008301526110b48184611011565b905092915050565b600080fd5b600080fd5b7f4e487b7100000000000000000000000000000000000000000000000000000000600052604160045260246000fd5b6110fe82610fb8565b810181811067ffffffffffffffff8211171561111d5761111c6110c6565b5b80604052505050565b6000611130610e8e565b905061113c82826110f5565b919050565b600067ffffffffffffffff82111561115c5761115b6110c6565b5b61116582610fb8565b9050602081019050919050565b82818337600083830152505050565b600061119461118f84611141565b611126565b9050828152602081018484840111156111b0576111af6110c1565b5b6111bb848285611172565b509392505050565b600082601f8301126111d8576111d76110bc565b5b81356111e8848260208601611181565b91505092915050565b6111fa81610e5a565b811461120557600080fd5b50565b600081359050611217816111f1565b92915050565b6000806000806080858703121561123757611236610e98565b5b600061124587828801610eeb565b945050602085013567ffffffffffffffff81111561126657611265610e9d565b5b611272878288016111c3565b935050604061128387828801611208565b925050606061129487828801611208565b91505092959194509250565b6112a981610ec2565b82525050565b600082825260208201905092915050565b60006112cb82610f72565b6112d581856112af565b93506112e5818560208601610f8e565b6112ee81610fb8565b840191505092915050565b600060608201905061130e60008301866112a0565b818103602083015261132081856112c0565b905061132f6040830184610e64565b949350505050565b600060c08201905061134c60008301896112a0565b818103602083015261135e81886112c0565b905061136d6040830187610e64565b61137a6060830186610e64565b6113876080830185610e64565b61139460a0830184610e64565b979650505050505050565b6000806000606084860312156113b8576113b7610e98565b5b600084013567ffffffffffffffff8111156113d6576113d5610e9d565b5b6113e2868287016111c3565b93505060206113f386828701610eeb565b925050604061140486828701611208565b9150509250925092565b7f4e487b7100000000000000000000000000000000000000000000000000000000600052602260045260246000fd5b6000600282049050600182168061145557607f821691505b6020821081036114685761146761140e565b5b50919050565b7f596f75277265206e6f7420746865206f7267616e69736174696f6e206f776e6560008201527f7200000000000000000000000000000000000000000000000000000000000000602082015250565b60006114ca6021836112af565b91506114d58261146e565b604082019050919050565b600060208201905081810360008301526114f9816114bd565b9050919050565b60006040820190506115156000830185610e64565b61152260208301846112a0565b9392505050565b7f596f75277265206e6f742077686974656c697374656400000000000000000000600082015250565b600061155f6016836112af565b915061156a82611529565b602082019050919050565b6000602082019050818103600083015261158e81611552565b9050919050565b7f6e6f7420696e206f7267616e69736174696f6e00000000000000000000000000600082015250565b60006115cb6013836112af565b91506115d682611595565b602082019050919050565b600060208201905081810360008301526115fa816115be565b9050919050565b7f4e487b7100000000000000000000000000000000000000000000000000000000600052601160045260246000fd5b600061163b82610e5a565b915061164683610e5a565b925082820190508082111561165e5761165d611601565b5b92915050565b7f56657374696e6720706572696f64206973206f76657200000000000000000000600082015250565b600061169a6016836112af565b91506116a582611664565b602082019050919050565b600060208201905081810360008301526116c98161168d565b9050919050565b60006116db82610e5a565b91506116e683610e5a565b92508282039050818111156116fe576116fd611601565b5b92915050565b7f496e73756666696369656e742066756e64730000000000000000000000000000600082015250565b600061173a6012836112af565b915061174582611704565b602082019050919050565b600060208201905081810360008301526117698161172d565b9050919050565b7f556e617574686f72697a65640000000000000000000000000000000000000000600082015250565b60006117a6600c836112af565b91506117b182611770565b602082019050919050565b600060208201905081810360008301526117d581611799565b9050919050565b7f63616e6e6f742062652067726561746572207468616e20746f6b656e00000000600082015250565b6000611812601c836112af565b915061181d826117dc565b602082019050919050565b6000602082019050818103600083015261184181611805565b9050919050565b60008190508160005260206000209050919050565b60006020601f8301049050919050565b600082821b905092915050565b6000600883026118aa7fffffffffffffffffffffffffffffffffffffffffffffffffffffffffffffffff8261186d565b6118b4868361186d565b95508019841693508086168417925050509392505050565b6000819050919050565b60006118f16118ec6118e784610e5a565b6118cc565b610e5a565b9050919050565b6000819050919050565b61190b836118d6565b61191f611917826118f8565b84845461187a565b825550505050565b600090565b611934611927565b61193f818484611902565b505050565b5b818110156119635761195860008261192c565b600181019050611945565b5050565b601f8211156119a85761197981611848565b6119828461185d565b81016020851015611991578190505b6119a561199d8561185d565b830182611944565b50505b505050565b600082821c905092915050565b60006119cb600019846008026119ad565b1980831691505092915050565b60006119e483836119ba565b9150826002028217905092915050565b6119fd82610f72565b67ffffffffffffffff811115611a1657611a156110c6565b5b611a20825461143d565b611a2b828285611967565b600060209050601f831160018114611a5e5760008415611a4c578287015190505b611a5685826119d8565b865550611abe565b601f198416611a6c86611848565b60005b82811015611a9457848901518255600182019150602085019450602081019050611a6f565b86831015611ab15784890151611aad601f8916826119ba565b8355505b6001600288020188555050505b505050505050565b6000604082019050611adb6000830185610e64565b611ae86020830184610e64565b939250505056fea26469706673582212207051837f9c2e1e2e6e0b2e1ecd6ad5379a7b79f53f1a9db82ea005481013810d64736f6c63430008120033",
  "linkReferences": {},
  "deployedLinkReferences": {}
}