{"contracts/vest.sol":{"Vesting":{"abi":[{"anonymous":false,"inputs":[{"indexed":false,"internalType":"uint256","name":"startTime","type":"uint256"},{"indexed":false,"internalType":"uint256","name":"vestingPeriod","type":"uint256"}],"name":"NewStakeholder","type":"event"},{"anonymous":false,"inputs":[{"indexed":false,"internalType":"uint256","name":"time","type":"uint256"},{"indexed":false,"internalType":"address","name":"stakeholder","type":"address"}],"name":"Whitelisted","type":"event"},{"inputs":[{"internalType":"address","name":"","type":"address"}],"name":"balances","outputs":[{"internalType":"uint256","name":"","type":"uint256"}],"stateMutability":"view","type":"function"},{"inputs":[],"name":"claimToken","outputs":[],"stateMutability":"nonpayable","type":"function"},{"inputs":[{"internalType":"string","name":"_name","type":"string"},{"internalType":"address","name":"_organizationAddress","type":"address"},{"internalType":"uint256","name":"_token","type":"uint256"}],"name":"createOrganization","outputs":[],"stateMutability":"nonpayable","type":"function"},{"inputs":[],"name":"getClaimedToken","outputs":[{"internalType":"uint256","name":"","type":"uint256"}],"stateMutability":"view","type":"function"},{"inputs":[{"internalType":"address","name":"_address","type":"address"}],"name":"getStakeholderPosition","outputs":[{"components":[{"internalType":"address","name":"stakeholderAddress","type":"address"},{"internalType":"string","name":"stakeholderPosition","type":"string"},{"internalType":"uint256","name":"vestingPeriod","type":"uint256"},{"internalType":"uint256","name":"startTime","type":"uint256"},{"internalType":"uint256","name":"tokenAmount","type":"uint256"},{"internalType":"uint256","name":"claimedToken","type":"uint256"}],"internalType":"struct Vesting.Stakeholder","name":"","type":"tuple"}],"stateMutability":"view","type":"function"},{"inputs":[{"internalType":"address","name":"_stakeholderAddress","type":"address"},{"internalType":"string","name":"_position","type":"string"},{"internalType":"uint256","name":"_vestingPeriod","type":"uint256"},{"internalType":"uint256","name":"_token","type":"uint256"}],"name":"newStakeholder","outputs":[],"stateMutability":"nonpayable","type":"function"},{"inputs":[{"internalType":"address","name":"","type":"address"}],"name":"organizations","outputs":[{"internalType":"address","name":"organizationAddress","type":"address"},{"internalType":"string","name":"name","type":"string"},{"internalType":"uint256","name":"tokenAmount","type":"uint256"}],"stateMutability":"view","type":"function"},{"inputs":[{"internalType":"address","name":"","type":"address"}],"name":"stakeholders","outputs":[{"internalType":"address","name":"stakeholderAddress","type":"address"},{"internalType":"string","name":"stakeholderPosition","type":"string"},{"internalType":"uint256","name":"vestingPeriod","type":"uint256"},{"internalType":"uint256","name":"startTime","type":"uint256"},{"internalType":"uint256","name":"tokenAmount","type":"uint256"},{"internalType":"uint256","name":"claimedToken","type":"uint256"}],"stateMutability":"view","type":"function"},{"inputs":[],"name":"totalSupply","outputs":[{"internalType":"uint256","name":"","type":"uint256"}],"stateMutability":"view","type":"function"},{"inputs":[{"internalType":"address","name":"_stakeholder","type":"address"}],"name":"whitelistAddress","outputs":[],"stateMutability":"nonpayable","type":"function"},{"inputs":[{"internalType":"address","name":"","type":"address"}],"name":"whitelistedAddresses","outputs":[{"internalType":"bool","name":"","type":"bool"}],"stateMutability":"view","type":"function"}],"evm":{"bytecode":{"linkReferences":{},"object":"608060405234801561001057600080fd5b50611b25806100206000396000f3fe608060405234801561001057600080fd5b50600436106100a95760003560e01c80634156658511610071578063415665851461017a5780634451d89f146101965780634c0be449146101a05780635a1f7406146101bc578063c07cfca9146101ee578063c0a8ea8114610223576100a9565b80630436c8f9146100ae57806306c933d8146100cc57806315c77811146100fc57806318160ddd1461012c57806327e235e31461014a575b600080fd5b6100b661023f565b6040516100c39190610e73565b60405180910390f35b6100e660048036038101906100e19190610f00565b610286565b6040516100f39190610f48565b60405180910390f35b61011660048036038101906101119190610f00565b6102a6565b604051610123919061109a565b60405180910390f35b61013461040f565b6040516101419190610e73565b60405180910390f35b610164600480360381019061015f9190610f00565b610415565b6040516101719190610e73565b60405180910390f35b610194600480360381019061018f9190610f00565b61042d565b005b61019e610591565b005b6101ba60048036038101906101b5919061121d565b6108c2565b005b6101d660048036038101906101d19190610f00565b610b61565b6040516101e5939291906112f9565b60405180910390f35b61020860048036038101906102039190610f00565b610c33565b60405161021a96959493929190611337565b60405180910390f35b61023d6004803603810190610238919061139f565b610d17565b005b6000600460003373ffffffffffffffffffffffffffffffffffffffff1673ffffffffffffffffffffffffffffffffffffffff16815260200190815260200160002054905090565b60026020528060005260406000206000915054906101000a900460ff1681565b6102ae610e0e565b600160008373ffffffffffffffffffffffffffffffffffffffff1673ffffffffffffffffffffffffffffffffffffffff1681526020019081526020016000206040518060c00160405290816000820160009054906101000a900473ffffffffffffffffffffffffffffffffffffffff1673ffffffffffffffffffffffffffffffffffffffff1673ffffffffffffffffffffffffffffffffffffffff16815260200160018201805461035e9061143d565b80601f016020809104026020016040519081016040528092919081815260200182805461038a9061143d565b80156103d75780601f106103ac576101008083540402835291602001916103d7565b820191906000526020600020905b8154815290600101906020018083116103ba57829003601f168201915b505050505081526020016002820154815260200160038201548152602001600482015481526020016005820154815250509050919050565b60005481565b60046020528060005260406000206000915090505481565b3373ffffffffffffffffffffffffffffffffffffffff16600360003373ffffffffffffffffffffffffffffffffffffffff1673ffffffffffffffffffffffffffffffffffffffff16815260200190815260200160002060000160009054906101000a900473ffffffffffffffffffffffffffffffffffffffff1673ffffffffffffffffffffffffffffffffffffffff16146104fd576040517f08c379a00000000000000000000000000000000000000000000000000000000081526004016104f4906114e0565b60405180910390fd5b6001600260008373ffffffffffffffffffffffffffffffffffffffff1673ffffffffffffffffffffffffffffffffffffffff16815260200190815260200160002060006101000a81548160ff0219169083151502179055507f2279719af4080e08a5a2b25c8234a83b76079141524127d1096409ac07fa5d0f4282604051610586929190611500565b60405180910390a150565b600260003373ffffffffffffffffffffffffffffffffffffffff1673ffffffffffffffffffffffffffffffffffffffff16815260200190815260200160002060009054906101000a900460ff1661061d576040517f08c379a000000000000000000000000000000000000000000000000000000000815260040161061490611575565b60405180910390fd5b6000600160003373ffffffffffffffffffffffffffffffffffffffff1673ffffffffffffffffffffffffffffffffffffffff16815260200190815260200160002090503373ffffffffffffffffffffffffffffffffffffffff16600360003373ffffffffffffffffffffffffffffffffffffffff1673ffffffffffffffffffffffffffffffffffffffff16815260200190815260200160002060000160009054906101000a900473ffffffffffffffffffffffffffffffffffffffff1673ffffffffffffffffffffffffffffffffffffffff16148061074b57503373ffffffffffffffffffffffffffffffffffffffff168160000160009054906101000a900473ffffffffffffffffffffffffffffffffffffffff1673ffffffffffffffffffffffffffffffffffffffff16145b61078a576040517f08c379a0000000000000000000000000000000000000000000000000000000008152600401610781906115e1565b60405180910390fd5b8060020154816003015461079e9190611630565b4210156107e0576040517f08c379a00000000000000000000000000000000000000000000000000000000081526004016107d7906116b0565b60405180910390fd5b6000816005015482600401546107f691906116d0565b90506000811161083b576040517f08c379a000000000000000000000000000000000000000000000000000000000815260040161083290611750565b60405180910390fd5b8082600501600082825461084f9190611630565b9250508190555080600460008460000160009054906101000a900473ffffffffffffffffffffffffffffffffffffffff1673ffffffffffffffffffffffffffffffffffffffff1673ffffffffffffffffffffffffffffffffffffffff168152602001908152602001600020819055505050565b3373ffffffffffffffffffffffffffffffffffffffff16600360003373ffffffffffffffffffffffffffffffffffffffff1673ffffffffffffffffffffffffffffffffffffffff16815260200190815260200160002060000160009054906101000a900473ffffffffffffffffffffffffffffffffffffffff1673ffffffffffffffffffffffffffffffffffffffff1614610992576040517f08c379a0000000000000000000000000000000000000000000000000000000008152600401610989906117bc565b60405180910390fd5b80600360003373ffffffffffffffffffffffffffffffffffffffff1673ffffffffffffffffffffffffffffffffffffffff168152602001908152602001600020600201541015610a17576040517f08c379a0000000000000000000000000000000000000000000000000000000008152600401610a0e90611828565b60405180910390fd5b6040518060c001604052808573ffffffffffffffffffffffffffffffffffffffff1681526020018481526020018381526020014281526020018281526020016000815250600160008673ffffffffffffffffffffffffffffffffffffffff1673ffffffffffffffffffffffffffffffffffffffff16815260200190815260200160002060008201518160000160006101000a81548173ffffffffffffffffffffffffffffffffffffffff021916908373ffffffffffffffffffffffffffffffffffffffff1602179055506020820151816001019081610af691906119f4565b5060408201518160020155606082015181600301556080820151816004015560a082015181600501559050507f6b14c643c7a21d055dece27d5b28b6c529fdf91f89c8a4d6feabd94cc99267684283604051610b53929190611ac6565b60405180910390a150505050565b60036020528060005260406000206000915090508060000160009054906101000a900473ffffffffffffffffffffffffffffffffffffffff1690806001018054610baa9061143d565b80601f0160208091040260200160405190810160405280929190818152602001828054610bd69061143d565b8015610c235780601f10610bf857610100808354040283529160200191610c23565b820191906000526020600020905b815481529060010190602001808311610c0657829003601f168201915b5050505050908060020154905083565b60016020528060005260406000206000915090508060000160009054906101000a900473ffffffffffffffffffffffffffffffffffffffff1690806001018054610c7c9061143d565b80601f0160208091040260200160405190810160405280929190818152602001828054610ca89061143d565b8015610cf55780601f10610cca57610100808354040283529160200191610cf5565b820191906000526020600020905b815481529060010190602001808311610cd857829003601f168201915b5050505050908060020154908060030154908060040154908060050154905086565b60405180606001604052808373ffffffffffffffffffffffffffffffffffffffff16815260200184815260200182815250600360008473ffffffffffffffffffffffffffffffffffffffff1673ffffffffffffffffffffffffffffffffffffffff16815260200190815260200160002060008201518160000160006101000a81548173ffffffffffffffffffffffffffffffffffffffff021916908373ffffffffffffffffffffffffffffffffffffffff1602179055506020820151816001019081610de391906119f4565b506040820151816002015590505080600080828254610e029190611630565b92505081905550505050565b6040518060c00160405280600073ffffffffffffffffffffffffffffffffffffffff16815260200160608152602001600081526020016000815260200160008152602001600081525090565b6000819050919050565b610e6d81610e5a565b82525050565b6000602082019050610e886000830184610e64565b92915050565b6000604051905090565b600080fd5b600080fd5b600073ffffffffffffffffffffffffffffffffffffffff82169050919050565b6000610ecd82610ea2565b9050919050565b610edd81610ec2565b8114610ee857600080fd5b50565b600081359050610efa81610ed4565b92915050565b600060208284031215610f1657610f15610e98565b5b6000610f2484828501610eeb565b91505092915050565b60008115159050919050565b610f4281610f2d565b82525050565b6000602082019050610f5d6000830184610f39565b92915050565b610f6c81610ec2565b82525050565b600081519050919050565b600082825260208201905092915050565b60005b83811015610fac578082015181840152602081019050610f91565b60008484015250505050565b6000601f19601f8301169050919050565b6000610fd482610f72565b610fde8185610f7d565b9350610fee818560208601610f8e565b610ff781610fb8565b840191505092915050565b61100b81610e5a565b82525050565b600060c0830160008301516110296000860182610f63565b50602083015184820360208601526110418282610fc9565b91505060408301516110566040860182611002565b5060608301516110696060860182611002565b50608083015161107c6080860182611002565b5060a083015161108f60a0860182611002565b508091505092915050565b600060208201905081810360008301526110b48184611011565b905092915050565b600080fd5b600080fd5b7f4e487b7100000000000000000000000000000000000000000000000000000000600052604160045260246000fd5b6110fe82610fb8565b810181811067ffffffffffffffff8211171561111d5761111c6110c6565b5b80604052505050565b6000611130610e8e565b905061113c82826110f5565b919050565b600067ffffffffffffffff82111561115c5761115b6110c6565b5b61116582610fb8565b9050602081019050919050565b82818337600083830152505050565b600061119461118f84611141565b611126565b9050828152602081018484840111156111b0576111af6110c1565b5b6111bb848285611172565b509392505050565b600082601f8301126111d8576111d76110bc565b5b81356111e8848260208601611181565b91505092915050565b6111fa81610e5a565b811461120557600080fd5b50565b600081359050611217816111f1565b92915050565b6000806000806080858703121561123757611236610e98565b5b600061124587828801610eeb565b945050602085013567ffffffffffffffff81111561126657611265610e9d565b5b611272878288016111c3565b935050604061128387828801611208565b925050606061129487828801611208565b91505092959194509250565b6112a981610ec2565b82525050565b600082825260208201905092915050565b60006112cb82610f72565b6112d581856112af565b93506112e5818560208601610f8e565b6112ee81610fb8565b840191505092915050565b600060608201905061130e60008301866112a0565b818103602083015261132081856112c0565b905061132f6040830184610e64565b949350505050565b600060c08201905061134c60008301896112a0565b818103602083015261135e81886112c0565b905061136d6040830187610e64565b61137a6060830186610e64565b6113876080830185610e64565b61139460a0830184610e64565b979650505050505050565b6000806000606084860312156113b8576113b7610e98565b5b600084013567ffffffffffffffff8111156113d6576113d5610e9d565b5b6113e2868287016111c3565b93505060206113f386828701610eeb565b925050604061140486828701611208565b9150509250925092565b7f4e487b7100000000000000000000000000000000000000000000000000000000600052602260045260246000fd5b6000600282049050600182168061145557607f821691505b6020821081036114685761146761140e565b5b50919050565b7f596f75277265206e6f7420746865206f7267616e69736174696f6e206f776e6560008201527f7200000000000000000000000000000000000000000000000000000000000000602082015250565b60006114ca6021836112af565b91506114d58261146e565b604082019050919050565b600060208201905081810360008301526114f9816114bd565b9050919050565b60006040820190506115156000830185610e64565b61152260208301846112a0565b9392505050565b7f596f75277265206e6f742077686974656c697374656400000000000000000000600082015250565b600061155f6016836112af565b915061156a82611529565b602082019050919050565b6000602082019050818103600083015261158e81611552565b9050919050565b7f6e6f7420696e206f7267616e69736174696f6e00000000000000000000000000600082015250565b60006115cb6013836112af565b91506115d682611595565b602082019050919050565b600060208201905081810360008301526115fa816115be565b9050919050565b7f4e487b7100000000000000000000000000000000000000000000000000000000600052601160045260246000fd5b600061163b82610e5a565b915061164683610e5a565b925082820190508082111561165e5761165d611601565b5b92915050565b7f56657374696e6720706572696f64206973206f76657200000000000000000000600082015250565b600061169a6016836112af565b91506116a582611664565b602082019050919050565b600060208201905081810360008301526116c98161168d565b9050919050565b60006116db82610e5a565b91506116e683610e5a565b92508282039050818111156116fe576116fd611601565b5b92915050565b7f496e73756666696369656e742066756e64730000000000000000000000000000600082015250565b600061173a6012836112af565b915061174582611704565b602082019050919050565b600060208201905081810360008301526117698161172d565b9050919050565b7f556e617574686f72697a65640000000000000000000000000000000000000000600082015250565b60006117a6600c836112af565b91506117b182611770565b602082019050919050565b600060208201905081810360008301526117d581611799565b9050919050565b7f63616e6e6f742062652067726561746572207468616e20746f6b656e00000000600082015250565b6000611812601c836112af565b915061181d826117dc565b602082019050919050565b6000602082019050818103600083015261184181611805565b9050919050565b60008190508160005260206000209050919050565b60006020601f8301049050919050565b600082821b905092915050565b6000600883026118aa7fffffffffffffffffffffffffffffffffffffffffffffffffffffffffffffffff8261186d565b6118b4868361186d565b95508019841693508086168417925050509392505050565b6000819050919050565b60006118f16118ec6118e784610e5a565b6118cc565b610e5a565b9050919050565b6000819050919050565b61190b836118d6565b61191f611917826118f8565b84845461187a565b825550505050565b600090565b611934611927565b61193f818484611902565b505050565b5b818110156119635761195860008261192c565b600181019050611945565b5050565b601f8211156119a85761197981611848565b6119828461185d565b81016020851015611991578190505b6119a561199d8561185d565b830182611944565b50505b505050565b600082821c905092915050565b60006119cb600019846008026119ad565b1980831691505092915050565b60006119e483836119ba565b9150826002028217905092915050565b6119fd82610f72565b67ffffffffffffffff811115611a1657611a156110c6565b5b611a20825461143d565b611a2b828285611967565b600060209050601f831160018114611a5e5760008415611a4c578287015190505b611a5685826119d8565b865550611abe565b601f198416611a6c86611848565b60005b82811015611a9457848901518255600182019150602085019450602081019050611a6f565b86831015611ab15784890151611aad601f8916826119ba565b8355505b6001600288020188555050505b505050505050565b6000604082019050611adb6000830185610e64565b611ae86020830184610e64565b939250505056fea26469706673582212207051837f9c2e1e2e6e0b2e1ecd6ad5379a7b79f53f1a9db82ea005481013810d64736f6c63430008120033","opcodes":"PUSH1 0x80 PUSH1 0x40 MSTORE CALLVALUE DUP1 ISZERO PUSH2 0x10 JUMPI PUSH1 0x0 DUP1 REVERT JUMPDEST POP PUSH2 0x1B25 DUP1 PUSH2 0x20 PUSH1 0x0 CODECOPY PUSH1 0x0 RETURN INVALID PUSH1 0x80 PUSH1 0x40 MSTORE CALLVALUE DUP1 ISZERO PUSH2 0x10 JUMPI PUSH1 0x0 DUP1 REVERT JUMPDEST POP PUSH1 0x4 CALLDATASIZE LT PUSH2 0xA9 JUMPI PUSH1 0x0 CALLDATALOAD PUSH1 0xE0 SHR DUP1 PUSH4 0x41566585 GT PUSH2 0x71 JUMPI DUP1 PUSH4 0x41566585 EQ PUSH2 0x17A JUMPI DUP1 PUSH4 0x4451D89F EQ PUSH2 0x196 JUMPI DUP1 PUSH4 0x4C0BE449 EQ PUSH2 0x1A0 JUMPI DUP1 PUSH4 0x5A1F7406 EQ PUSH2 0x1BC JUMPI DUP1 PUSH4 0xC07CFCA9 EQ PUSH2 0x1EE JUMPI DUP1 PUSH4 0xC0A8EA81 EQ PUSH2 0x223 JUMPI PUSH2 0xA9 JUMP JUMPDEST DUP1 PUSH4 0x436C8F9 EQ PUSH2 0xAE JUMPI DUP1 PUSH4 0x6C933D8 EQ PUSH2 0xCC JUMPI DUP1 PUSH4 0x15C77811 EQ PUSH2 0xFC JUMPI DUP1 PUSH4 0x18160DDD EQ PUSH2 0x12C JUMPI DUP1 PUSH4 0x27E235E3 EQ PUSH2 0x14A JUMPI JUMPDEST PUSH1 0x0 DUP1 REVERT JUMPDEST PUSH2 0xB6 PUSH2 0x23F JUMP JUMPDEST PUSH1 0x40 MLOAD PUSH2 0xC3 SWAP2 SWAP1 PUSH2 0xE73 JUMP JUMPDEST PUSH1 0x40 MLOAD DUP1 SWAP2 SUB SWAP1 RETURN JUMPDEST PUSH2 0xE6 PUSH1 0x4 DUP1 CALLDATASIZE SUB DUP2 ADD SWAP1 PUSH2 0xE1 SWAP2 SWAP1 PUSH2 0xF00 JUMP JUMPDEST PUSH2 0x286 JUMP JUMPDEST PUSH1 0x40 MLOAD PUSH2 0xF3 SWAP2 SWAP1 PUSH2 0xF48 JUMP JUMPDEST PUSH1 0x40 MLOAD DUP1 SWAP2 SUB SWAP1 RETURN JUMPDEST PUSH2 0x116 PUSH1 0x4 DUP1 CALLDATASIZE SUB DUP2 ADD SWAP1 PUSH2 0x111 SWAP2 SWAP1 PUSH2 0xF00 JUMP JUMPDEST PUSH2 0x2A6 JUMP JUMPDEST PUSH1 0x40 MLOAD PUSH2 0x123 SWAP2 SWAP1 PUSH2 0x109A JUMP JUMPDEST PUSH1 0x40 MLOAD DUP1 SWAP2 SUB SWAP1 RETURN JUMPDEST PUSH2 0x134 PUSH2 0x40F JUMP JUMPDEST PUSH1 0x40 MLOAD PUSH2 0x141 SWAP2 SWAP1 PUSH2 0xE73 JUMP JUMPDEST PUSH1 0x40 MLOAD DUP1 SWAP2 SUB SWAP1 RETURN JUMPDEST PUSH2 0x164 PUSH1 0x4 DUP1 CALLDATASIZE SUB DUP2 ADD SWAP1 PUSH2 0x15F SWAP2 SWAP1 PUSH2 0xF00 JUMP JUMPDEST PUSH2 0x415 JUMP JUMPDEST PUSH1 0x40 MLOAD PUSH2 0x171 SWAP2 SWAP1 PUSH2 0xE73 JUMP JUMPDEST PUSH1 0x40 MLOAD DUP1 SWAP2 SUB SWAP1 RETURN JUMPDEST PUSH2 0x194 PUSH1 0x4 DUP1 CALLDATASIZE SUB DUP2 ADD SWAP1 PUSH2 0x18F SWAP2 SWAP1 PUSH2 0xF00 JUMP JUMPDEST PUSH2 0x42D JUMP JUMPDEST STOP JUMPDEST PUSH2 0x19E PUSH2 0x591 JUMP JUMPDEST STOP JUMPDEST PUSH2 0x1BA PUSH1 0x4 DUP1 CALLDATASIZE SUB DUP2 ADD SWAP1 PUSH2 0x1B5 SWAP2 SWAP1 PUSH2 0x121D JUMP JUMPDEST PUSH2 0x8C2 JUMP JUMPDEST STOP JUMPDEST PUSH2 0x1D6 PUSH1 0x4 DUP1 CALLDATASIZE SUB DUP2 ADD SWAP1 PUSH2 0x1D1 SWAP2 SWAP1 PUSH2 0xF00 JUMP JUMPDEST PUSH2 0xB61 JUMP JUMPDEST PUSH1 0x40 MLOAD PUSH2 0x1E5 SWAP4 SWAP3 SWAP2 SWAP1 PUSH2 0x12F9 JUMP JUMPDEST PUSH1 0x40 MLOAD DUP1 SWAP2 SUB SWAP1 RETURN JUMPDEST PUSH2 0x208 PUSH1 0x4 DUP1 CALLDATASIZE SUB DUP2 ADD SWAP1 PUSH2 0x203 SWAP2 SWAP1 PUSH2 0xF00 JUMP JUMPDEST PUSH2 0xC33 JUMP JUMPDEST PUSH1 0x40 MLOAD PUSH2 0x21A SWAP7 SWAP6 SWAP5 SWAP4 SWAP3 SWAP2 SWAP1 PUSH2 0x1337 JUMP JUMPDEST PUSH1 0x40 MLOAD DUP1 SWAP2 SUB SWAP1 RETURN JUMPDEST PUSH2 0x23D PUSH1 0x4 DUP1 CALLDATASIZE SUB DUP2 ADD SWAP1 PUSH2 0x238 SWAP2 SWAP1 PUSH2 0x139F JUMP JUMPDEST PUSH2 0xD17 JUMP JUMPDEST STOP JUMPDEST PUSH1 0x0 PUSH1 0x4 PUSH1 0x0 CALLER PUSH20 0xFFFFFFFFFFFFFFFFFFFFFFFFFFFFFFFFFFFFFFFF AND PUSH20 0xFFFFFFFFFFFFFFFFFFFFFFFFFFFFFFFFFFFFFFFF AND DUP2 MSTORE PUSH1 0x20 ADD SWAP1 DUP2 MSTORE PUSH1 0x20 ADD PUSH1 0x0 KECCAK256 SLOAD SWAP1 POP SWAP1 JUMP JUMPDEST PUSH1 0x2 PUSH1 0x20 MSTORE DUP1 PUSH1 0x0 MSTORE PUSH1 0x40 PUSH1 0x0 KECCAK256 PUSH1 0x0 SWAP2 POP SLOAD SWAP1 PUSH2 0x100 EXP SWAP1 DIV PUSH1 0xFF AND DUP2 JUMP JUMPDEST PUSH2 0x2AE PUSH2 0xE0E JUMP JUMPDEST PUSH1 0x1 PUSH1 0x0 DUP4 PUSH20 0xFFFFFFFFFFFFFFFFFFFFFFFFFFFFFFFFFFFFFFFF AND PUSH20 0xFFFFFFFFFFFFFFFFFFFFFFFFFFFFFFFFFFFFFFFF AND DUP2 MSTORE PUSH1 0x20 ADD SWAP1 DUP2 MSTORE PUSH1 0x20 ADD PUSH1 0x0 KECCAK256 PUSH1 0x40 MLOAD DUP1 PUSH1 0xC0 ADD PUSH1 0x40 MSTORE SWAP1 DUP2 PUSH1 0x0 DUP3 ADD PUSH1 0x0 SWAP1 SLOAD SWAP1 PUSH2 0x100 EXP SWAP1 DIV PUSH20 0xFFFFFFFFFFFFFFFFFFFFFFFFFFFFFFFFFFFFFFFF AND PUSH20 0xFFFFFFFFFFFFFFFFFFFFFFFFFFFFFFFFFFFFFFFF AND PUSH20 0xFFFFFFFFFFFFFFFFFFFFFFFFFFFFFFFFFFFFFFFF AND DUP2 MSTORE PUSH1 0x20 ADD PUSH1 0x1 DUP3 ADD DUP1 SLOAD PUSH2 0x35E SWAP1 PUSH2 0x143D JUMP JUMPDEST DUP1 PUSH1 0x1F ADD PUSH1 0x20 DUP1 SWAP2 DIV MUL PUSH1 0x20 ADD PUSH1 0x40 MLOAD SWAP1 DUP2 ADD PUSH1 0x40 MSTORE DUP1 SWAP3 SWAP2 SWAP1 DUP2 DUP2 MSTORE PUSH1 0x20 ADD DUP3 DUP1 SLOAD PUSH2 0x38A SWAP1 PUSH2 0x143D JUMP JUMPDEST DUP1 ISZERO PUSH2 0x3D7 JUMPI DUP1 PUSH1 0x1F LT PUSH2 0x3AC JUMPI PUSH2 0x100 DUP1 DUP4 SLOAD DIV MUL DUP4 MSTORE SWAP2 PUSH1 0x20 ADD SWAP2 PUSH2 0x3D7 JUMP JUMPDEST DUP3 ADD SWAP2 SWAP1 PUSH1 0x0 MSTORE PUSH1 0x20 PUSH1 0x0 KECCAK256 SWAP1 JUMPDEST DUP2 SLOAD DUP2 MSTORE SWAP1 PUSH1 0x1 ADD SWAP1 PUSH1 0x20 ADD DUP1 DUP4 GT PUSH2 0x3BA JUMPI DUP3 SWAP1 SUB PUSH1 0x1F AND DUP3 ADD SWAP2 JUMPDEST POP POP POP POP POP DUP2 MSTORE PUSH1 0x20 ADD PUSH1 0x2 DUP3 ADD SLOAD DUP2 MSTORE PUSH1 0x20 ADD PUSH1 0x3 DUP3 ADD SLOAD DUP2 MSTORE PUSH1 0x20 ADD PUSH1 0x4 DUP3 ADD SLOAD DUP2 MSTORE PUSH1 0x20 ADD PUSH1 0x5 DUP3 ADD SLOAD DUP2 MSTORE POP POP SWAP1 POP SWAP2 SWAP1 POP JUMP JUMPDEST PUSH1 0x0 SLOAD DUP2 JUMP JUMPDEST PUSH1 0x4 PUSH1 0x20 MSTORE DUP1 PUSH1 0x0 MSTORE PUSH1 0x40 PUSH1 0x0 KECCAK256 PUSH1 0x0 SWAP2 POP SWAP1 POP SLOAD DUP2 JUMP JUMPDEST CALLER PUSH20 0xFFFFFFFFFFFFFFFFFFFFFFFFFFFFFFFFFFFFFFFF AND PUSH1 0x3 PUSH1 0x0 CALLER PUSH20 0xFFFFFFFFFFFFFFFFFFFFFFFFFFFFFFFFFFFFFFFF AND PUSH20 0xFFFFFFFFFFFFFFFFFFFFFFFFFFFFFFFFFFFFFFFF AND DUP2 MSTORE PUSH1 0x20 ADD SWAP1 DUP2 MSTORE PUSH1 0x20 ADD PUSH1 0x0 KECCAK256 PUSH1 0x0 ADD PUSH1 0x0 SWAP1 SLOAD SWAP1 PUSH2 0x100 EXP SWAP1 DIV PUSH20 0xFFFFFFFFFFFFFFFFFFFFFFFFFFFFFFFFFFFFFFFF AND PUSH20 0xFFFFFFFFFFFFFFFFFFFFFFFFFFFFFFFFFFFFFFFF AND EQ PUSH2 0x4FD JUMPI PUSH1 0x40 MLOAD PUSH32 0x8C379A000000000000000000000000000000000000000000000000000000000 DUP2 MSTORE PUSH1 0x4 ADD PUSH2 0x4F4 SWAP1 PUSH2 0x14E0 JUMP JUMPDEST PUSH1 0x40 MLOAD DUP1 SWAP2 SUB SWAP1 REVERT JUMPDEST PUSH1 0x1 PUSH1 0x2 PUSH1 0x0 DUP4 PUSH20 0xFFFFFFFFFFFFFFFFFFFFFFFFFFFFFFFFFFFFFFFF AND PUSH20 0xFFFFFFFFFFFFFFFFFFFFFFFFFFFFFFFFFFFFFFFF AND DUP2 MSTORE PUSH1 0x20 ADD SWAP1 DUP2 MSTORE PUSH1 0x20 ADD PUSH1 0x0 KECCAK256 PUSH1 0x0 PUSH2 0x100 EXP DUP2 SLOAD DUP2 PUSH1 0xFF MUL NOT AND SWAP1 DUP4 ISZERO ISZERO MUL OR SWAP1 SSTORE POP PUSH32 0x2279719AF4080E08A5A2B25C8234A83B76079141524127D1096409AC07FA5D0F TIMESTAMP DUP3 PUSH1 0x40 MLOAD PUSH2 0x586 SWAP3 SWAP2 SWAP1 PUSH2 0x1500 JUMP JUMPDEST PUSH1 0x40 MLOAD DUP1 SWAP2 SUB SWAP1 LOG1 POP JUMP JUMPDEST PUSH1 0x2 PUSH1 0x0 CALLER PUSH20 0xFFFFFFFFFFFFFFFFFFFFFFFFFFFFFFFFFFFFFFFF AND PUSH20 0xFFFFFFFFFFFFFFFFFFFFFFFFFFFFFFFFFFFFFFFF AND DUP2 MSTORE PUSH1 0x20 ADD SWAP1 DUP2 MSTORE PUSH1 0x20 ADD PUSH1 0x0 KECCAK256 PUSH1 0x0 SWAP1 SLOAD SWAP1 PUSH2 0x100 EXP SWAP1 DIV PUSH1 0xFF AND PUSH2 0x61D JUMPI PUSH1 0x40 MLOAD PUSH32 0x8C379A000000000000000000000000000000000000000000000000000000000 DUP2 MSTORE PUSH1 0x4 ADD PUSH2 0x614 SWAP1 PUSH2 0x1575 JUMP JUMPDEST PUSH1 0x40 MLOAD DUP1 SWAP2 SUB SWAP1 REVERT JUMPDEST PUSH1 0x0 PUSH1 0x1 PUSH1 0x0 CALLER PUSH20 0xFFFFFFFFFFFFFFFFFFFFFFFFFFFFFFFFFFFFFFFF AND PUSH20 0xFFFFFFFFFFFFFFFFFFFFFFFFFFFFFFFFFFFFFFFF AND DUP2 MSTORE PUSH1 0x20 ADD SWAP1 DUP2 MSTORE PUSH1 0x20 ADD PUSH1 0x0 KECCAK256 SWAP1 POP CALLER PUSH20 0xFFFFFFFFFFFFFFFFFFFFFFFFFFFFFFFFFFFFFFFF AND PUSH1 0x3 PUSH1 0x0 CALLER PUSH20 0xFFFFFFFFFFFFFFFFFFFFFFFFFFFFFFFFFFFFFFFF AND PUSH20 0xFFFFFFFFFFFFFFFFFFFFFFFFFFFFFFFFFFFFFFFF AND DUP2 MSTORE PUSH1 0x20 ADD SWAP1 DUP2 MSTORE PUSH1 0x20 ADD PUSH1 0x0 KECCAK256 PUSH1 0x0 ADD PUSH1 0x0 SWAP1 SLOAD SWAP1 PUSH2 0x100 EXP SWAP1 DIV PUSH20 0xFFFFFFFFFFFFFFFFFFFFFFFFFFFFFFFFFFFFFFFF AND PUSH20 0xFFFFFFFFFFFFFFFFFFFFFFFFFFFFFFFFFFFFFFFF AND EQ DUP1 PUSH2 0x74B JUMPI POP CALLER PUSH20 0xFFFFFFFFFFFFFFFFFFFFFFFFFFFFFFFFFFFFFFFF AND DUP2 PUSH1 0x0 ADD PUSH1 0x0 SWAP1 SLOAD SWAP1 PUSH2 0x100 EXP SWAP1 DIV PUSH20 0xFFFFFFFFFFFFFFFFFFFFFFFFFFFFFFFFFFFFFFFF AND PUSH20 0xFFFFFFFFFFFFFFFFFFFFFFFFFFFFFFFFFFFFFFFF AND EQ JUMPDEST PUSH2 0x78A JUMPI PUSH1 0x40 MLOAD PUSH32 0x8C379A000000000000000000000000000000000000000000000000000000000 DUP2 MSTORE PUSH1 0x4 ADD PUSH2 0x781 SWAP1 PUSH2 0x15E1 JUMP JUMPDEST PUSH1 0x40 MLOAD DUP1 SWAP2 SUB SWAP1 REVERT JUMPDEST DUP1 PUSH1 0x2 ADD SLOAD DUP2 PUSH1 0x3 ADD SLOAD PUSH2 0x79E SWAP2 SWAP1 PUSH2 0x1630 JUMP JUMPDEST TIMESTAMP LT ISZERO PUSH2 0x7E0 JUMPI PUSH1 0x40 MLOAD PUSH32 0x8C379A000000000000000000000000000000000000000000000000000000000 DUP2 MSTORE PUSH1 0x4 ADD PUSH2 0x7D7 SWAP1 PUSH2 0x16B0 JUMP JUMPDEST PUSH1 0x40 MLOAD DUP1 SWAP2 SUB SWAP1 REVERT JUMPDEST PUSH1 0x0 DUP2 PUSH1 0x5 ADD SLOAD DUP3 PUSH1 0x4 ADD SLOAD PUSH2 0x7F6 SWAP2 SWAP1 PUSH2 0x16D0 JUMP JUMPDEST SWAP1 POP PUSH1 0x0 DUP2 GT PUSH2 0x83B JUMPI PUSH1 0x40 MLOAD PUSH32 0x8C379A000000000000000000000000000000000000000000000000000000000 DUP2 MSTORE PUSH1 0x4 ADD PUSH2 0x832 SWAP1 PUSH2 0x1750 JUMP JUMPDEST PUSH1 0x40 MLOAD DUP1 SWAP2 SUB SWAP1 REVERT JUMPDEST DUP1 DUP3 PUSH1 0x5 ADD PUSH1 0x0 DUP3 DUP3 SLOAD PUSH2 0x84F SWAP2 SWAP1 PUSH2 0x1630 JUMP JUMPDEST SWAP3 POP POP DUP2 SWAP1 SSTORE POP DUP1 PUSH1 0x4 PUSH1 0x0 DUP5 PUSH1 0x0 ADD PUSH1 0x0 SWAP1 SLOAD SWAP1 PUSH2 0x100 EXP SWAP1 DIV PUSH20 0xFFFFFFFFFFFFFFFFFFFFFFFFFFFFFFFFFFFFFFFF AND PUSH20 0xFFFFFFFFFFFFFFFFFFFFFFFFFFFFFFFFFFFFFFFF AND PUSH20 0xFFFFFFFFFFFFFFFFFFFFFFFFFFFFFFFFFFFFFFFF AND DUP2 MSTORE PUSH1 0x20 ADD SWAP1 DUP2 MSTORE PUSH1 0x20 ADD PUSH1 0x0 KECCAK256 DUP2 SWAP1 SSTORE POP POP POP JUMP JUMPDEST CALLER PUSH20 0xFFFFFFFFFFFFFFFFFFFFFFFFFFFFFFFFFFFFFFFF AND PUSH1 0x3 PUSH1 0x0 CALLER PUSH20 0xFFFFFFFFFFFFFFFFFFFFFFFFFFFFFFFFFFFFFFFF AND PUSH20 0xFFFFFFFFFFFFFFFFFFFFFFFFFFFFFFFFFFFFFFFF AND DUP2 MSTORE PUSH1 0x20 ADD SWAP1 DUP2 MSTORE PUSH1 0x20 ADD PUSH1 0x0 KECCAK256 PUSH1 0x0 ADD PUSH1 0x0 SWAP1 SLOAD SWAP1 PUSH2 0x100 EXP SWAP1 DIV PUSH20 0xFFFFFFFFFFFFFFFFFFFFFFFFFFFFFFFFFFFFFFFF AND PUSH20 0xFFFFFFFFFFFFFFFFFFFFFFFFFFFFFFFFFFFFFFFF AND EQ PUSH2 0x992 JUMPI PUSH1 0x40 MLOAD PUSH32 0x8C379A000000000000000000000000000000000000000000000000000000000 DUP2 MSTORE PUSH1 0x4 ADD PUSH2 0x989 SWAP1 PUSH2 0x17BC JUMP JUMPDEST PUSH1 0x40 MLOAD DUP1 SWAP2 SUB SWAP1 REVERT JUMPDEST DUP1 PUSH1 0x3 PUSH1 0x0 CALLER PUSH20 0xFFFFFFFFFFFFFFFFFFFFFFFFFFFFFFFFFFFFFFFF AND PUSH20 0xFFFFFFFFFFFFFFFFFFFFFFFFFFFFFFFFFFFFFFFF AND DUP2 MSTORE PUSH1 0x20 ADD SWAP1 DUP2 MSTORE PUSH1 0x20 ADD PUSH1 0x0 KECCAK256 PUSH1 0x2 ADD SLOAD LT ISZERO PUSH2 0xA17 JUMPI PUSH1 0x40 MLOAD PUSH32 0x8C379A000000000000000000000000000000000000000000000000000000000 DUP2 MSTORE PUSH1 0x4 ADD PUSH2 0xA0E SWAP1 PUSH2 0x1828 JUMP JUMPDEST PUSH1 0x40 MLOAD DUP1 SWAP2 SUB SWAP1 REVERT JUMPDEST PUSH1 0x40 MLOAD DUP1 PUSH1 0xC0 ADD PUSH1 0x40 MSTORE DUP1 DUP6 PUSH20 0xFFFFFFFFFFFFFFFFFFFFFFFFFFFFFFFFFFFFFFFF AND DUP2 MSTORE PUSH1 0x20 ADD DUP5 DUP2 MSTORE PUSH1 0x20 ADD DUP4 DUP2 MSTORE PUSH1 0x20 ADD TIMESTAMP DUP2 MSTORE PUSH1 0x20 ADD DUP3 DUP2 MSTORE PUSH1 0x20 ADD PUSH1 0x0 DUP2 MSTORE POP PUSH1 0x1 PUSH1 0x0 DUP7 PUSH20 0xFFFFFFFFFFFFFFFFFFFFFFFFFFFFFFFFFFFFFFFF AND PUSH20 0xFFFFFFFFFFFFFFFFFFFFFFFFFFFFFFFFFFFFFFFF AND DUP2 MSTORE PUSH1 0x20 ADD SWAP1 DUP2 MSTORE PUSH1 0x20 ADD PUSH1 0x0 KECCAK256 PUSH1 0x0 DUP3 ADD MLOAD DUP2 PUSH1 0x0 ADD PUSH1 0x0 PUSH2 0x100 EXP DUP2 SLOAD DUP2 PUSH20 0xFFFFFFFFFFFFFFFFFFFFFFFFFFFFFFFFFFFFFFFF MUL NOT AND SWAP1 DUP4 PUSH20 0xFFFFFFFFFFFFFFFFFFFFFFFFFFFFFFFFFFFFFFFF AND MUL OR SWAP1 SSTORE POP PUSH1 0x20 DUP3 ADD MLOAD DUP2 PUSH1 0x1 ADD SWAP1 DUP2 PUSH2 0xAF6 SWAP2 SWAP1 PUSH2 0x19F4 JUMP JUMPDEST POP PUSH1 0x40 DUP3 ADD MLOAD DUP2 PUSH1 0x2 ADD SSTORE PUSH1 0x60 DUP3 ADD MLOAD DUP2 PUSH1 0x3 ADD SSTORE PUSH1 0x80 DUP3 ADD MLOAD DUP2 PUSH1 0x4 ADD SSTORE PUSH1 0xA0 DUP3 ADD MLOAD DUP2 PUSH1 0x5 ADD SSTORE SWAP1 POP POP PUSH32 0x6B14C643C7A21D055DECE27D5B28B6C529FDF91F89C8A4D6FEABD94CC9926768 TIMESTAMP DUP4 PUSH1 0x40 MLOAD PUSH2 0xB53 SWAP3 SWAP2 SWAP1 PUSH2 0x1AC6 JUMP JUMPDEST PUSH1 0x40 MLOAD DUP1 SWAP2 SUB SWAP1 LOG1 POP POP POP POP JUMP JUMPDEST PUSH1 0x3 PUSH1 0x20 MSTORE DUP1 PUSH1 0x0 MSTORE PUSH1 0x40 PUSH1 0x0 KECCAK256 PUSH1 0x0 SWAP2 POP SWAP1 POP DUP1 PUSH1 0x0 ADD PUSH1 0x0 SWAP1 SLOAD SWAP1 PUSH2 0x100 EXP SWAP1 DIV PUSH20 0xFFFFFFFFFFFFFFFFFFFFFFFFFFFFFFFFFFFFFFFF AND SWAP1 DUP1 PUSH1 0x1 ADD DUP1 SLOAD PUSH2 0xBAA SWAP1 PUSH2 0x143D JUMP JUMPDEST DUP1 PUSH1 0x1F ADD PUSH1 0x20 DUP1 SWAP2 DIV MUL PUSH1 0x20 ADD PUSH1 0x40 MLOAD SWAP1 DUP2 ADD PUSH1 0x40 MSTORE DUP1 SWAP3 SWAP2 SWAP1 DUP2 DUP2 MSTORE PUSH1 0x20 ADD DUP3 DUP1 SLOAD PUSH2 0xBD6 SWAP1 PUSH2 0x143D JUMP JUMPDEST DUP1 ISZERO PUSH2 0xC23 JUMPI DUP1 PUSH1 0x1F LT PUSH2 0xBF8 JUMPI PUSH2 0x100 DUP1 DUP4 SLOAD DIV MUL DUP4 MSTORE SWAP2 PUSH1 0x20 ADD SWAP2 PUSH2 0xC23 JUMP JUMPDEST DUP3 ADD SWAP2 SWAP1 PUSH1 0x0 MSTORE PUSH1 0x20 PUSH1 0x0 KECCAK256 SWAP1 JUMPDEST DUP2 SLOAD DUP2 MSTORE SWAP1 PUSH1 0x1 ADD SWAP1 PUSH1 0x20 ADD DUP1 DUP4 GT PUSH2 0xC06 JUMPI DUP3 SWAP1 SUB PUSH1 0x1F AND DUP3 ADD SWAP2 JUMPDEST POP POP POP POP POP SWAP1 DUP1 PUSH1 0x2 ADD SLOAD SWAP1 POP DUP4 JUMP JUMPDEST PUSH1 0x1 PUSH1 0x20 MSTORE DUP1 PUSH1 0x0 MSTORE PUSH1 0x40 PUSH1 0x0 KECCAK256 PUSH1 0x0 SWAP2 POP SWAP1 POP DUP1 PUSH1 0x0 ADD PUSH1 0x0 SWAP1 SLOAD SWAP1 PUSH2 0x100 EXP SWAP1 DIV PUSH20 0xFFFFFFFFFFFFFFFFFFFFFFFFFFFFFFFFFFFFFFFF AND SWAP1 DUP1 PUSH1 0x1 ADD DUP1 SLOAD PUSH2 0xC7C SWAP1 PUSH2 0x143D JUMP JUMPDEST DUP1 PUSH1 0x1F ADD PUSH1 0x20 DUP1 SWAP2 DIV MUL PUSH1 0x20 ADD PUSH1 0x40 MLOAD SWAP1 DUP2 ADD PUSH1 0x40 MSTORE DUP1 SWAP3 SWAP2 SWAP1 DUP2 DUP2 MSTORE PUSH1 0x20 ADD DUP3 DUP1 SLOAD PUSH2 0xCA8 SWAP1 PUSH2 0x143D JUMP JUMPDEST DUP1 ISZERO PUSH2 0xCF5 JUMPI DUP1 PUSH1 0x1F LT PUSH2 0xCCA JUMPI PUSH2 0x100 DUP1 DUP4 SLOAD DIV MUL DUP4 MSTORE SWAP2 PUSH1 0x20 ADD SWAP2 PUSH2 0xCF5 JUMP JUMPDEST DUP3 ADD SWAP2 SWAP1 PUSH1 0x0 MSTORE PUSH1 0x20 PUSH1 0x0 KECCAK256 SWAP1 JUMPDEST DUP2 SLOAD DUP2 MSTORE SWAP1 PUSH1 0x1 ADD SWAP1 PUSH1 0x20 ADD DUP1 DUP4 GT PUSH2 0xCD8 JUMPI DUP3 SWAP1 SUB PUSH1 0x1F AND DUP3 ADD SWAP2 JUMPDEST POP POP POP POP POP SWAP1 DUP1 PUSH1 0x2 ADD SLOAD SWAP1 DUP1 PUSH1 0x3 ADD SLOAD SWAP1 DUP1 PUSH1 0x4 ADD SLOAD SWAP1 DUP1 PUSH1 0x5 ADD SLOAD SWAP1 POP DUP7 JUMP JUMPDEST PUSH1 0x40 MLOAD DUP1 PUSH1 0x60 ADD PUSH1 0x40 MSTORE DUP1 DUP4 PUSH20 0xFFFFFFFFFFFFFFFFFFFFFFFFFFFFFFFFFFFFFFFF AND DUP2 MSTORE PUSH1 0x20 ADD DUP5 DUP2 MSTORE PUSH1 0x20 ADD DUP3 DUP2 MSTORE POP PUSH1 0x3 PUSH1 0x0 DUP5 PUSH20 0xFFFFFFFFFFFFFFFFFFFFFFFFFFFFFFFFFFFFFFFF AND PUSH20 0xFFFFFFFFFFFFFFFFFFFFFFFFFFFFFFFFFFFFFFFF AND DUP2 MSTORE PUSH1 0x20 ADD SWAP1 DUP2 MSTORE PUSH1 0x20 ADD PUSH1 0x0 KECCAK256 PUSH1 0x0 DUP3 ADD MLOAD DUP2 PUSH1 0x0 ADD PUSH1 0x0 PUSH2 0x100 EXP DUP2 SLOAD DUP2 PUSH20 0xFFFFFFFFFFFFFFFFFFFFFFFFFFFFFFFFFFFFFFFF MUL NOT AND SWAP1 DUP4 PUSH20 0xFFFFFFFFFFFFFFFFFFFFFFFFFFFFFFFFFFFFFFFF AND MUL OR SWAP1 SSTORE POP PUSH1 0x20 DUP3 ADD MLOAD DUP2 PUSH1 0x1 ADD SWAP1 DUP2 PUSH2 0xDE3 SWAP2 SWAP1 PUSH2 0x19F4 JUMP JUMPDEST POP PUSH1 0x40 DUP3 ADD MLOAD DUP2 PUSH1 0x2 ADD SSTORE SWAP1 POP POP DUP1 PUSH1 0x0 DUP1 DUP3 DUP3 SLOAD PUSH2 0xE02 SWAP2 SWAP1 PUSH2 0x1630 JUMP JUMPDEST SWAP3 POP POP DUP2 SWAP1 SSTORE POP POP POP POP JUMP JUMPDEST PUSH1 0x40 MLOAD DUP1 PUSH1 0xC0 ADD PUSH1 0x40 MSTORE DUP1 PUSH1 0x0 PUSH20 0xFFFFFFFFFFFFFFFFFFFFFFFFFFFFFFFFFFFFFFFF AND DUP2 MSTORE PUSH1 0x20 ADD PUSH1 0x60 DUP2 MSTORE PUSH1 0x20 ADD PUSH1 0x0 DUP2 MSTORE PUSH1 0x20 ADD PUSH1 0x0 DUP2 MSTORE PUSH1 0x20 ADD PUSH1 0x0 DUP2 MSTORE PUSH1 0x20 ADD PUSH1 0x0 DUP2 MSTORE POP SWAP1 JUMP JUMPDEST PUSH1 0x0 DUP2 SWAP1 POP SWAP2 SWAP1 POP JUMP JUMPDEST PUSH2 0xE6D DUP2 PUSH2 0xE5A JUMP JUMPDEST DUP3 MSTORE POP POP JUMP JUMPDEST PUSH1 0x0 PUSH1 0x20 DUP3 ADD SWAP1 POP PUSH2 0xE88 PUSH1 0x0 DUP4 ADD DUP5 PUSH2 0xE64 JUMP JUMPDEST SWAP3 SWAP2 POP POP JUMP JUMPDEST PUSH1 0x0 PUSH1 0x40 MLOAD SWAP1 POP SWAP1 JUMP JUMPDEST PUSH1 0x0 DUP1 REVERT JUMPDEST PUSH1 0x0 DUP1 REVERT JUMPDEST PUSH1 0x0 PUSH20 0xFFFFFFFFFFFFFFFFFFFFFFFFFFFFFFFFFFFFFFFF DUP3 AND SWAP1 POP SWAP2 SWAP1 POP JUMP JUMPDEST PUSH1 0x0 PUSH2 0xECD DUP3 PUSH2 0xEA2 JUMP JUMPDEST SWAP1 POP SWAP2 SWAP1 POP JUMP JUMPDEST PUSH2 0xEDD DUP2 PUSH2 0xEC2 JUMP JUMPDEST DUP2 EQ PUSH2 0xEE8 JUMPI PUSH1 0x0 DUP1 REVERT JUMPDEST POP JUMP JUMPDEST PUSH1 0x0 DUP2 CALLDATALOAD SWAP1 POP PUSH2 0xEFA DUP2 PUSH2 0xED4 JUMP JUMPDEST SWAP3 SWAP2 POP POP JUMP JUMPDEST PUSH1 0x0 PUSH1 0x20 DUP3 DUP5 SUB SLT ISZERO PUSH2 0xF16 JUMPI PUSH2 0xF15 PUSH2 0xE98 JUMP JUMPDEST JUMPDEST PUSH1 0x0 PUSH2 0xF24 DUP5 DUP3 DUP6 ADD PUSH2 0xEEB JUMP JUMPDEST SWAP2 POP POP SWAP3 SWAP2 POP POP JUMP JUMPDEST PUSH1 0x0 DUP2 ISZERO ISZERO SWAP1 POP SWAP2 SWAP1 POP JUMP JUMPDEST PUSH2 0xF42 DUP2 PUSH2 0xF2D JUMP JUMPDEST DUP3 MSTORE POP POP JUMP JUMPDEST PUSH1 0x0 PUSH1 0x20 DUP3 ADD SWAP1 POP PUSH2 0xF5D PUSH1 0x0 DUP4 ADD DUP5 PUSH2 0xF39 JUMP JUMPDEST SWAP3 SWAP2 POP POP JUMP JUMPDEST PUSH2 0xF6C DUP2 PUSH2 0xEC2 JUMP JUMPDEST DUP3 MSTORE POP POP JUMP JUMPDEST PUSH1 0x0 DUP2 MLOAD SWAP1 POP SWAP2 SWAP1 POP JUMP JUMPDEST PUSH1 0x0 DUP3 DUP3 MSTORE PUSH1 0x20 DUP3 ADD SWAP1 POP SWAP3 SWAP2 POP POP JUMP JUMPDEST PUSH1 0x0 JUMPDEST DUP4 DUP2 LT ISZERO PUSH2 0xFAC JUMPI DUP1 DUP3 ADD MLOAD DUP2 DUP5 ADD MSTORE PUSH1 0x20 DUP2 ADD SWAP1 POP PUSH2 0xF91 JUMP JUMPDEST PUSH1 0x0 DUP5 DUP5 ADD MSTORE POP POP POP POP JUMP JUMPDEST PUSH1 0x0 PUSH1 0x1F NOT PUSH1 0x1F DUP4 ADD AND SWAP1 POP SWAP2 SWAP1 POP JUMP JUMPDEST PUSH1 0x0 PUSH2 0xFD4 DUP3 PUSH2 0xF72 JUMP JUMPDEST PUSH2 0xFDE DUP2 DUP6 PUSH2 0xF7D JUMP JUMPDEST SWAP4 POP PUSH2 0xFEE DUP2 DUP6 PUSH1 0x20 DUP7 ADD PUSH2 0xF8E JUMP JUMPDEST PUSH2 0xFF7 DUP2 PUSH2 0xFB8 JUMP JUMPDEST DUP5 ADD SWAP2 POP POP SWAP3 SWAP2 POP POP JUMP JUMPDEST PUSH2 0x100B DUP2 PUSH2 0xE5A JUMP JUMPDEST DUP3 MSTORE POP POP JUMP JUMPDEST PUSH1 0x0 PUSH1 0xC0 DUP4 ADD PUSH1 0x0 DUP4 ADD MLOAD PUSH2 0x1029 PUSH1 0x0 DUP7 ADD DUP3 PUSH2 0xF63 JUMP JUMPDEST POP PUSH1 0x20 DUP4 ADD MLOAD DUP5 DUP3 SUB PUSH1 0x20 DUP7 ADD MSTORE PUSH2 0x1041 DUP3 DUP3 PUSH2 0xFC9 JUMP JUMPDEST SWAP2 POP POP PUSH1 0x40 DUP4 ADD MLOAD PUSH2 0x1056 PUSH1 0x40 DUP7 ADD DUP3 PUSH2 0x1002 JUMP JUMPDEST POP PUSH1 0x60 DUP4 ADD MLOAD PUSH2 0x1069 PUSH1 0x60 DUP7 ADD DUP3 PUSH2 0x1002 JUMP JUMPDEST POP PUSH1 0x80 DUP4 ADD MLOAD PUSH2 0x107C PUSH1 0x80 DUP7 ADD DUP3 PUSH2 0x1002 JUMP JUMPDEST POP PUSH1 0xA0 DUP4 ADD MLOAD PUSH2 0x108F PUSH1 0xA0 DUP7 ADD DUP3 PUSH2 0x1002 JUMP JUMPDEST POP DUP1 SWAP2 POP POP SWAP3 SWAP2 POP POP JUMP JUMPDEST PUSH1 0x0 PUSH1 0x20 DUP3 ADD SWAP1 POP DUP2 DUP2 SUB PUSH1 0x0 DUP4 ADD MSTORE PUSH2 0x10B4 DUP2 DUP5 PUSH2 0x1011 JUMP JUMPDEST SWAP1 POP SWAP3 SWAP2 POP POP JUMP JUMPDEST PUSH1 0x0 DUP1 REVERT JUMPDEST PUSH1 0x0 DUP1 REVERT JUMPDEST PUSH32 0x4E487B7100000000000000000000000000000000000000000000000000000000 PUSH1 0x0 MSTORE PUSH1 0x41 PUSH1 0x4 MSTORE PUSH1 0x24 PUSH1 0x0 REVERT JUMPDEST PUSH2 0x10FE DUP3 PUSH2 0xFB8 JUMP JUMPDEST DUP2 ADD DUP2 DUP2 LT PUSH8 0xFFFFFFFFFFFFFFFF DUP3 GT OR ISZERO PUSH2 0x111D JUMPI PUSH2 0x111C PUSH2 0x10C6 JUMP JUMPDEST JUMPDEST DUP1 PUSH1 0x40 MSTORE POP POP POP JUMP JUMPDEST PUSH1 0x0 PUSH2 0x1130 PUSH2 0xE8E JUMP JUMPDEST SWAP1 POP PUSH2 0x113C DUP3 DUP3 PUSH2 0x10F5 JUMP JUMPDEST SWAP2 SWAP1 POP JUMP JUMPDEST PUSH1 0x0 PUSH8 0xFFFFFFFFFFFFFFFF DUP3 GT ISZERO PUSH2 0x115C JUMPI PUSH2 0x115B PUSH2 0x10C6 JUMP JUMPDEST JUMPDEST PUSH2 0x1165 DUP3 PUSH2 0xFB8 JUMP JUMPDEST SWAP1 POP PUSH1 0x20 DUP2 ADD SWAP1 POP SWAP2 SWAP1 POP JUMP JUMPDEST DUP3 DUP2 DUP4 CALLDATACOPY PUSH1 0x0 DUP4 DUP4 ADD MSTORE POP POP POP JUMP JUMPDEST PUSH1 0x0 PUSH2 0x1194 PUSH2 0x118F DUP5 PUSH2 0x1141 JUMP JUMPDEST PUSH2 0x1126 JUMP JUMPDEST SWAP1 POP DUP3 DUP2 MSTORE PUSH1 0x20 DUP2 ADD DUP5 DUP5 DUP5 ADD GT ISZERO PUSH2 0x11B0 JUMPI PUSH2 0x11AF PUSH2 0x10C1 JUMP JUMPDEST JUMPDEST PUSH2 0x11BB DUP5 DUP3 DUP6 PUSH2 0x1172 JUMP JUMPDEST POP SWAP4 SWAP3 POP POP POP JUMP JUMPDEST PUSH1 0x0 DUP3 PUSH1 0x1F DUP4 ADD SLT PUSH2 0x11D8 JUMPI PUSH2 0x11D7 PUSH2 0x10BC JUMP JUMPDEST JUMPDEST DUP2 CALLDATALOAD PUSH2 0x11E8 DUP5 DUP3 PUSH1 0x20 DUP7 ADD PUSH2 0x1181 JUMP JUMPDEST SWAP2 POP POP SWAP3 SWAP2 POP POP JUMP JUMPDEST PUSH2 0x11FA DUP2 PUSH2 0xE5A JUMP JUMPDEST DUP2 EQ PUSH2 0x1205 JUMPI PUSH1 0x0 DUP1 REVERT JUMPDEST POP JUMP JUMPDEST PUSH1 0x0 DUP2 CALLDATALOAD SWAP1 POP PUSH2 0x1217 DUP2 PUSH2 0x11F1 JUMP JUMPDEST SWAP3 SWAP2 POP POP JUMP JUMPDEST PUSH1 0x0 DUP1 PUSH1 0x0 DUP1 PUSH1 0x80 DUP6 DUP8 SUB SLT ISZERO PUSH2 0x1237 JUMPI PUSH2 0x1236 PUSH2 0xE98 JUMP JUMPDEST JUMPDEST PUSH1 0x0 PUSH2 0x1245 DUP8 DUP3 DUP9 ADD PUSH2 0xEEB JUMP JUMPDEST SWAP5 POP POP PUSH1 0x20 DUP6 ADD CALLDATALOAD PUSH8 0xFFFFFFFFFFFFFFFF DUP2 GT ISZERO PUSH2 0x1266 JUMPI PUSH2 0x1265 PUSH2 0xE9D JUMP JUMPDEST JUMPDEST PUSH2 0x1272 DUP8 DUP3 DUP9 ADD PUSH2 0x11C3 JUMP JUMPDEST SWAP4 POP POP PUSH1 0x40 PUSH2 0x1283 DUP8 DUP3 DUP9 ADD PUSH2 0x1208 JUMP JUMPDEST SWAP3 POP POP PUSH1 0x60 PUSH2 0x1294 DUP8 DUP3 DUP9 ADD PUSH2 0x1208 JUMP JUMPDEST SWAP2 POP POP SWAP3 SWAP6 SWAP2 SWAP5 POP SWAP3 POP JUMP JUMPDEST PUSH2 0x12A9 DUP2 PUSH2 0xEC2 JUMP JUMPDEST DUP3 MSTORE POP POP JUMP JUMPDEST PUSH1 0x0 DUP3 DUP3 MSTORE PUSH1 0x20 DUP3 ADD SWAP1 POP SWAP3 SWAP2 POP POP JUMP JUMPDEST PUSH1 0x0 PUSH2 0x12CB DUP3 PUSH2 0xF72 JUMP JUMPDEST PUSH2 0x12D5 DUP2 DUP6 PUSH2 0x12AF JUMP JUMPDEST SWAP4 POP PUSH2 0x12E5 DUP2 DUP6 PUSH1 0x20 DUP7 ADD PUSH2 0xF8E JUMP JUMPDEST PUSH2 0x12EE DUP2 PUSH2 0xFB8 JUMP JUMPDEST DUP5 ADD SWAP2 POP POP SWAP3 SWAP2 POP POP JUMP JUMPDEST PUSH1 0x0 PUSH1 0x60 DUP3 ADD SWAP1 POP PUSH2 0x130E PUSH1 0x0 DUP4 ADD DUP7 PUSH2 0x12A0 JUMP JUMPDEST DUP2 DUP2 SUB PUSH1 0x20 DUP4 ADD MSTORE PUSH2 0x1320 DUP2 DUP6 PUSH2 0x12C0 JUMP JUMPDEST SWAP1 POP PUSH2 0x132F PUSH1 0x40 DUP4 ADD DUP5 PUSH2 0xE64 JUMP JUMPDEST SWAP5 SWAP4 POP POP POP POP JUMP JUMPDEST PUSH1 0x0 PUSH1 0xC0 DUP3 ADD SWAP1 POP PUSH2 0x134C PUSH1 0x0 DUP4 ADD DUP10 PUSH2 0x12A0 JUMP JUMPDEST DUP2 DUP2 SUB PUSH1 0x20 DUP4 ADD MSTORE PUSH2 0x135E DUP2 DUP9 PUSH2 0x12C0 JUMP JUMPDEST SWAP1 POP PUSH2 0x136D PUSH1 0x40 DUP4 ADD DUP8 PUSH2 0xE64 JUMP JUMPDEST PUSH2 0x137A PUSH1 0x60 DUP4 ADD DUP7 PUSH2 0xE64 JUMP JUMPDEST PUSH2 0x1387 PUSH1 0x80 DUP4 ADD DUP6 PUSH2 0xE64 JUMP JUMPDEST PUSH2 0x1394 PUSH1 0xA0 DUP4 ADD DUP5 PUSH2 0xE64 JUMP JUMPDEST SWAP8 SWAP7 POP POP POP POP POP POP POP JUMP JUMPDEST PUSH1 0x0 DUP1 PUSH1 0x0 PUSH1 0x60 DUP5 DUP7 SUB SLT ISZERO PUSH2 0x13B8 JUMPI PUSH2 0x13B7 PUSH2 0xE98 JUMP JUMPDEST JUMPDEST PUSH1 0x0 DUP5 ADD CALLDATALOAD PUSH8 0xFFFFFFFFFFFFFFFF DUP2 GT ISZERO PUSH2 0x13D6 JUMPI PUSH2 0x13D5 PUSH2 0xE9D JUMP JUMPDEST JUMPDEST PUSH2 0x13E2 DUP7 DUP3 DUP8 ADD PUSH2 0x11C3 JUMP JUMPDEST SWAP4 POP POP PUSH1 0x20 PUSH2 0x13F3 DUP7 DUP3 DUP8 ADD PUSH2 0xEEB JUMP JUMPDEST SWAP3 POP POP PUSH1 0x40 PUSH2 0x1404 DUP7 DUP3 DUP8 ADD PUSH2 0x1208 JUMP JUMPDEST SWAP2 POP POP SWAP3 POP SWAP3 POP SWAP3 JUMP JUMPDEST PUSH32 0x4E487B7100000000000000000000000000000000000000000000000000000000 PUSH1 0x0 MSTORE PUSH1 0x22 PUSH1 0x4 MSTORE PUSH1 0x24 PUSH1 0x0 REVERT JUMPDEST PUSH1 0x0 PUSH1 0x2 DUP3 DIV SWAP1 POP PUSH1 0x1 DUP3 AND DUP1 PUSH2 0x1455 JUMPI PUSH1 0x7F DUP3 AND SWAP2 POP JUMPDEST PUSH1 0x20 DUP3 LT DUP2 SUB PUSH2 0x1468 JUMPI PUSH2 0x1467 PUSH2 0x140E JUMP JUMPDEST JUMPDEST POP SWAP2 SWAP1 POP JUMP JUMPDEST PUSH32 0x596F75277265206E6F7420746865206F7267616E69736174696F6E206F776E65 PUSH1 0x0 DUP3 ADD MSTORE PUSH32 0x7200000000000000000000000000000000000000000000000000000000000000 PUSH1 0x20 DUP3 ADD MSTORE POP JUMP JUMPDEST PUSH1 0x0 PUSH2 0x14CA PUSH1 0x21 DUP4 PUSH2 0x12AF JUMP JUMPDEST SWAP2 POP PUSH2 0x14D5 DUP3 PUSH2 0x146E JUMP JUMPDEST PUSH1 0x40 DUP3 ADD SWAP1 POP SWAP2 SWAP1 POP JUMP JUMPDEST PUSH1 0x0 PUSH1 0x20 DUP3 ADD SWAP1 POP DUP2 DUP2 SUB PUSH1 0x0 DUP4 ADD MSTORE PUSH2 0x14F9 DUP2 PUSH2 0x14BD JUMP JUMPDEST SWAP1 POP SWAP2 SWAP1 POP JUMP JUMPDEST PUSH1 0x0 PUSH1 0x40 DUP3 ADD SWAP1 POP PUSH2 0x1515 PUSH1 0x0 DUP4 ADD DUP6 PUSH2 0xE64 JUMP JUMPDEST PUSH2 0x1522 PUSH1 0x20 DUP4 ADD DUP5 PUSH2 0x12A0 JUMP JUMPDEST SWAP4 SWAP3 POP POP POP JUMP JUMPDEST PUSH32 0x596F75277265206E6F742077686974656C697374656400000000000000000000 PUSH1 0x0 DUP3 ADD MSTORE POP JUMP JUMPDEST PUSH1 0x0 PUSH2 0x155F PUSH1 0x16 DUP4 PUSH2 0x12AF JUMP JUMPDEST SWAP2 POP PUSH2 0x156A DUP3 PUSH2 0x1529 JUMP JUMPDEST PUSH1 0x20 DUP3 ADD SWAP1 POP SWAP2 SWAP1 POP JUMP JUMPDEST PUSH1 0x0 PUSH1 0x20 DUP3 ADD SWAP1 POP DUP2 DUP2 SUB PUSH1 0x0 DUP4 ADD MSTORE PUSH2 0x158E DUP2 PUSH2 0x1552 JUMP JUMPDEST SWAP1 POP SWAP2 SWAP1 POP JUMP JUMPDEST PUSH32 0x6E6F7420696E206F7267616E69736174696F6E00000000000000000000000000 PUSH1 0x0 DUP3 ADD MSTORE POP JUMP JUMPDEST PUSH1 0x0 PUSH2 0x15CB PUSH1 0x13 DUP4 PUSH2 0x12AF JUMP JUMPDEST SWAP2 POP PUSH2 0x15D6 DUP3 PUSH2 0x1595 JUMP JUMPDEST PUSH1 0x20 DUP3 ADD SWAP1 POP SWAP2 SWAP1 POP JUMP JUMPDEST PUSH1 0x0 PUSH1 0x20 DUP3 ADD SWAP1 POP DUP2 DUP2 SUB PUSH1 0x0 DUP4 ADD MSTORE PUSH2 0x15FA DUP2 PUSH2 0x15BE JUMP JUMPDEST SWAP1 POP SWAP2 SWAP1 POP JUMP JUMPDEST PUSH32 0x4E487B7100000000000000000000000000000000000000000000000000000000 PUSH1 0x0 MSTORE PUSH1 0x11 PUSH1 0x4 MSTORE PUSH1 0x24 PUSH1 0x0 REVERT JUMPDEST PUSH1 0x0 PUSH2 0x163B DUP3 PUSH2 0xE5A JUMP JUMPDEST SWAP2 POP PUSH2 0x1646 DUP4 PUSH2 0xE5A JUMP JUMPDEST SWAP3 POP DUP3 DUP3 ADD SWAP1 POP DUP1 DUP3 GT ISZERO PUSH2 0x165E JUMPI PUSH2 0x165D PUSH2 0x1601 JUMP JUMPDEST JUMPDEST SWAP3 SWAP2 POP POP JUMP JUMPDEST PUSH32 0x56657374696E6720706572696F64206973206F76657200000000000000000000 PUSH1 0x0 DUP3 ADD MSTORE POP JUMP JUMPDEST PUSH1 0x0 PUSH2 0x169A PUSH1 0x16 DUP4 PUSH2 0x12AF JUMP JUMPDEST SWAP2 POP PUSH2 0x16A5 DUP3 PUSH2 0x1664 JUMP JUMPDEST PUSH1 0x20 DUP3 ADD SWAP1 POP SWAP2 SWAP1 POP JUMP JUMPDEST PUSH1 0x0 PUSH1 0x20 DUP3 ADD SWAP1 POP DUP2 DUP2 SUB PUSH1 0x0 DUP4 ADD MSTORE PUSH2 0x16C9 DUP2 PUSH2 0x168D JUMP JUMPDEST SWAP1 POP SWAP2 SWAP1 POP JUMP JUMPDEST PUSH1 0x0 PUSH2 0x16DB DUP3 PUSH2 0xE5A JUMP JUMPDEST SWAP2 POP PUSH2 0x16E6 DUP4 PUSH2 0xE5A JUMP JUMPDEST SWAP3 POP DUP3 DUP3 SUB SWAP1 POP DUP2 DUP2 GT ISZERO PUSH2 0x16FE JUMPI PUSH2 0x16FD PUSH2 0x1601 JUMP JUMPDEST JUMPDEST SWAP3 SWAP2 POP POP JUMP JUMPDEST PUSH32 0x496E73756666696369656E742066756E64730000000000000000000000000000 PUSH1 0x0 DUP3 ADD MSTORE POP JUMP JUMPDEST PUSH1 0x0 PUSH2 0x173A PUSH1 0x12 DUP4 PUSH2 0x12AF JUMP JUMPDEST SWAP2 POP PUSH2 0x1745 DUP3 PUSH2 0x1704 JUMP JUMPDEST PUSH1 0x20 DUP3 ADD SWAP1 POP SWAP2 SWAP1 POP JUMP JUMPDEST PUSH1 0x0 PUSH1 0x20 DUP3 ADD SWAP1 POP DUP2 DUP2 SUB PUSH1 0x0 DUP4 ADD MSTORE PUSH2 0x1769 DUP2 PUSH2 0x172D JUMP JUMPDEST SWAP1 POP SWAP2 SWAP1 POP JUMP JUMPDEST PUSH32 0x556E617574686F72697A65640000000000000000000000000000000000000000 PUSH1 0x0 DUP3 ADD MSTORE POP JUMP JUMPDEST PUSH1 0x0 PUSH2 0x17A6 PUSH1 0xC DUP4 PUSH2 0x12AF JUMP JUMPDEST SWAP2 POP PUSH2 0x17B1 DUP3 PUSH2 0x1770 JUMP JUMPDEST PUSH1 0x20 DUP3 ADD SWAP1 POP SWAP2 SWAP1 POP JUMP JUMPDEST PUSH1 0x0 PUSH1 0x20 DUP3 ADD SWAP1 POP DUP2 DUP2 SUB PUSH1 0x0 DUP4 ADD MSTORE PUSH2 0x17D5 DUP2 PUSH2 0x1799 JUMP JUMPDEST SWAP1 POP SWAP2 SWAP1 POP JUMP JUMPDEST PUSH32 0x63616E6E6F742062652067726561746572207468616E20746F6B656E00000000 PUSH1 0x0 DUP3 ADD MSTORE POP JUMP JUMPDEST PUSH1 0x0 PUSH2 0x1812 PUSH1 0x1C DUP4 PUSH2 0x12AF JUMP JUMPDEST SWAP2 POP PUSH2 0x181D DUP3 PUSH2 0x17DC JUMP JUMPDEST PUSH1 0x20 DUP3 ADD SWAP1 POP SWAP2 SWAP1 POP JUMP JUMPDEST PUSH1 0x0 PUSH1 0x20 DUP3 ADD SWAP1 POP DUP2 DUP2 SUB PUSH1 0x0 DUP4 ADD MSTORE PUSH2 0x1841 DUP2 PUSH2 0x1805 JUMP JUMPDEST SWAP1 POP SWAP2 SWAP1 POP JUMP JUMPDEST PUSH1 0x0 DUP2 SWAP1 POP DUP2 PUSH1 0x0 MSTORE PUSH1 0x20 PUSH1 0x0 KECCAK256 SWAP1 POP SWAP2 SWAP1 POP JUMP JUMPDEST PUSH1 0x0 PUSH1 0x20 PUSH1 0x1F DUP4 ADD DIV SWAP1 POP SWAP2 SWAP1 POP JUMP JUMPDEST PUSH1 0x0 DUP3 DUP3 SHL SWAP1 POP SWAP3 SWAP2 POP POP JUMP JUMPDEST PUSH1 0x0 PUSH1 0x8 DUP4 MUL PUSH2 0x18AA PUSH32 0xFFFFFFFFFFFFFFFFFFFFFFFFFFFFFFFFFFFFFFFFFFFFFFFFFFFFFFFFFFFFFFFF DUP3 PUSH2 0x186D JUMP JUMPDEST PUSH2 0x18B4 DUP7 DUP4 PUSH2 0x186D JUMP JUMPDEST SWAP6 POP DUP1 NOT DUP5 AND SWAP4 POP DUP1 DUP7 AND DUP5 OR SWAP3 POP POP POP SWAP4 SWAP3 POP POP POP JUMP JUMPDEST PUSH1 0x0 DUP2 SWAP1 POP SWAP2 SWAP1 POP JUMP JUMPDEST PUSH1 0x0 PUSH2 0x18F1 PUSH2 0x18EC PUSH2 0x18E7 DUP5 PUSH2 0xE5A JUMP JUMPDEST PUSH2 0x18CC JUMP JUMPDEST PUSH2 0xE5A JUMP JUMPDEST SWAP1 POP SWAP2 SWAP1 POP JUMP JUMPDEST PUSH1 0x0 DUP2 SWAP1 POP SWAP2 SWAP1 POP JUMP JUMPDEST PUSH2 0x190B DUP4 PUSH2 0x18D6 JUMP JUMPDEST PUSH2 0x191F PUSH2 0x1917 DUP3 PUSH2 0x18F8 JUMP JUMPDEST DUP5 DUP5 SLOAD PUSH2 0x187A JUMP JUMPDEST DUP3 SSTORE POP POP POP POP JUMP JUMPDEST PUSH1 0x0 SWAP1 JUMP JUMPDEST PUSH2 0x1934 PUSH2 0x1927 JUMP JUMPDEST PUSH2 0x193F DUP2 DUP5 DUP5 PUSH2 0x1902 JUMP JUMPDEST POP POP POP JUMP JUMPDEST JUMPDEST DUP2 DUP2 LT ISZERO PUSH2 0x1963 JUMPI PUSH2 0x1958 PUSH1 0x0 DUP3 PUSH2 0x192C JUMP JUMPDEST PUSH1 0x1 DUP2 ADD SWAP1 POP PUSH2 0x1945 JUMP JUMPDEST POP POP JUMP JUMPDEST PUSH1 0x1F DUP3 GT ISZERO PUSH2 0x19A8 JUMPI PUSH2 0x1979 DUP2 PUSH2 0x1848 JUMP JUMPDEST PUSH2 0x1982 DUP5 PUSH2 0x185D JUMP JUMPDEST DUP2 ADD PUSH1 0x20 DUP6 LT ISZERO PUSH2 0x1991 JUMPI DUP2 SWAP1 POP JUMPDEST PUSH2 0x19A5 PUSH2 0x199D DUP6 PUSH2 0x185D JUMP JUMPDEST DUP4 ADD DUP3 PUSH2 0x1944 JUMP JUMPDEST POP POP JUMPDEST POP POP POP JUMP JUMPDEST PUSH1 0x0 DUP3 DUP3 SHR SWAP1 POP SWAP3 SWAP2 POP POP JUMP JUMPDEST PUSH1 0x0 PUSH2 0x19CB PUSH1 0x0 NOT DUP5 PUSH1 0x8 MUL PUSH2 0x19AD JUMP JUMPDEST NOT DUP1 DUP4 AND SWAP2 POP POP SWAP3 SWAP2 POP POP JUMP JUMPDEST PUSH1 0x0 PUSH2 0x19E4 DUP4 DUP4 PUSH2 0x19BA JUMP JUMPDEST SWAP2 POP DUP3 PUSH1 0x2 MUL DUP3 OR SWAP1 POP SWAP3 SWAP2 POP POP JUMP JUMPDEST PUSH2 0x19FD DUP3 PUSH2 0xF72 JUMP JUMPDEST PUSH8 0xFFFFFFFFFFFFFFFF DUP2 GT ISZERO PUSH2 0x1A16 JUMPI PUSH2 0x1A15 PUSH2 0x10C6 JUMP JUMPDEST JUMPDEST PUSH2 0x1A20 DUP3 SLOAD PUSH2 0x143D JUMP JUMPDEST PUSH2 0x1A2B DUP3 DUP3 DUP6 PUSH2 0x1967 JUMP JUMPDEST PUSH1 0x0 PUSH1 0x20 SWAP1 POP PUSH1 0x1F DUP4 GT PUSH1 0x1 DUP2 EQ PUSH2 0x1A5E JUMPI PUSH1 0x0 DUP5 ISZERO PUSH2 0x1A4C JUMPI DUP3 DUP8 ADD MLOAD SWAP1 POP JUMPDEST PUSH2 0x1A56 DUP6 DUP3 PUSH2 0x19D8 JUMP JUMPDEST DUP7 SSTORE POP PUSH2 0x1ABE JUMP JUMPDEST PUSH1 0x1F NOT DUP5 AND PUSH2 0x1A6C DUP7 PUSH2 0x1848 JUMP JUMPDEST PUSH1 0x0 JUMPDEST DUP3 DUP2 LT ISZERO PUSH2 0x1A94 JUMPI DUP5 DUP10 ADD MLOAD DUP3 SSTORE PUSH1 0x1 DUP3 ADD SWAP2 POP PUSH1 0x20 DUP6 ADD SWAP5 POP PUSH1 0x20 DUP2 ADD SWAP1 POP PUSH2 0x1A6F JUMP JUMPDEST DUP7 DUP4 LT ISZERO PUSH2 0x1AB1 JUMPI DUP5 DUP10 ADD MLOAD PUSH2 0x1AAD PUSH1 0x1F DUP10 AND DUP3 PUSH2 0x19BA JUMP JUMPDEST DUP4 SSTORE POP JUMPDEST PUSH1 0x1 PUSH1 0x2 DUP9 MUL ADD DUP9 SSTORE POP POP POP JUMPDEST POP POP POP POP POP POP JUMP JUMPDEST PUSH1 0x0 PUSH1 0x40 DUP3 ADD SWAP1 POP PUSH2 0x1ADB PUSH1 0x0 DUP4 ADD DUP6 PUSH2 0xE64 JUMP JUMPDEST PUSH2 0x1AE8 PUSH1 0x20 DUP4 ADD DUP5 PUSH2 0xE64 JUMP JUMPDEST SWAP4 SWAP3 POP POP POP JUMP INVALID LOG2 PUSH5 0x6970667358 0x22 SLT KECCAK256 PUSH17 0x51837F9C2E1E2E6E0B2E1ECD6AD5379A7B PUSH26 0xF53F1A9DB82EA005481013810D64736F6C634300081200330000 "},"methodIdentifiers":{"balances(address)":"27e235e3","claimToken()":"4451d89f","createOrganization(string,address,uint256)":"c0a8ea81","getClaimedToken()":"0436c8f9","getStakeholderPosition(address)":"15c77811","newStakeholder(address,string,uint256,uint256)":"4c0be449","organizations(address)":"5a1f7406","stakeholders(address)":"c07cfca9","totalSupply()":"18160ddd","whitelistAddress(address)":"41566585","whitelistedAddresses(address)":"06c933d8"}}}}}